{
  "contractName": "CoinFlip",
  "abi": [
    {
      "anonymous": false,
      "inputs": [
        {
          "indexed": false,
          "internalType": "address",
          "name": "playerAddress",
          "type": "address"
        },
        {
          "indexed": false,
          "internalType": "uint256",
          "name": "amount",
          "type": "uint256"
        },
        {
          "indexed": false,
          "internalType": "bool",
          "name": "betWon",
          "type": "bool"
        },
        {
          "indexed": false,
          "internalType": "uint256",
          "name": "flipResult",
          "type": "uint256"
        }
      ],
      "name": "betPlaced",
      "type": "event"
    },
    {
      "constant": true,
      "inputs": [],
      "name": "balance",
      "outputs": [
        {
          "internalType": "uint256",
          "name": "",
          "type": "uint256"
        }
      ],
      "payable": false,
      "stateMutability": "view",
      "type": "function"
    },
    {
      "constant": true,
      "inputs": [],
      "name": "owner",
      "outputs": [
        {
          "internalType": "address payable",
          "name": "",
          "type": "address"
        }
      ],
      "payable": false,
      "stateMutability": "view",
      "type": "function"
    },
    {
      "constant": false,
      "inputs": [
        {
          "internalType": "uint256",
          "name": "betOn",
          "type": "uint256"
        }
      ],
      "name": "placeBet",
      "outputs": [
        {
          "internalType": "bool",
          "name": "",
          "type": "bool"
        }
      ],
      "payable": true,
      "stateMutability": "payable",
      "type": "function"
    },
    {
      "constant": false,
      "inputs": [
        {
          "internalType": "uint256",
          "name": "amount",
          "type": "uint256"
        }
      ],
      "name": "withdraw",
      "outputs": [],
      "payable": false,
      "stateMutability": "nonpayable",
      "type": "function"
    },
    {
      "constant": true,
      "inputs": [],
      "name": "getBalance",
      "outputs": [
        {
          "internalType": "uint256",
          "name": "",
          "type": "uint256"
        }
      ],
      "payable": false,
      "stateMutability": "view",
      "type": "function"
    },
    {
      "constant": false,
      "inputs": [],
      "name": "fundContract",
      "outputs": [],
      "payable": true,
      "stateMutability": "payable",
      "type": "function"
    },
    {
      "constant": true,
      "inputs": [],
      "name": "flipCoin",
      "outputs": [
        {
          "internalType": "uint256",
          "name": "",
          "type": "uint256"
        }
      ],
      "payable": false,
      "stateMutability": "view",
      "type": "function"
    }
  ],
  "bytecode": "0x6080604052336000806101000a81548173ffffffffffffffffffffffffffffffffffffffff021916908373ffffffffffffffffffffffffffffffffffffffff160217905550610569806100536000396000f3fe6080604052600436106100705760003560e01c8063799ae2231161004e578063799ae223146101215780638da5cb5b1461014c578063b69ef8a8146101a3578063bd097e21146101ce57610070565b806310fe7c481461007557806312065fe0146100bb5780632e1a7d4d146100e6575b600080fd5b6100a16004803603602081101561008b57600080fd5b81019080803590602001909291905050506101d8565b604051808215151515815260200191505060405180910390f35b3480156100c757600080fd5b506100d0610465565b6040518082815260200191505060405180910390f35b3480156100f257600080fd5b5061011f6004803603602081101561010957600080fd5b8101908080359060200190929190505050610484565b005b34801561012d57600080fd5b506101366104ce565b6040518082815260200191505060405180910390f35b34801561015857600080fd5b506101616104e0565b604051808273ffffffffffffffffffffffffffffffffffffffff1673ffffffffffffffffffffffffffffffffffffffff16815260200191505060405180910390f35b3480156101af57600080fd5b506101b8610505565b6040518082815260200191505060405180910390f35b6101d661050b565b005b6000670de0b6b3a7640000803410156101f057600080fd5b60018314806101ff5750600083145b610271576040517f08c379a00000000000000000000000000000000000000000000000000000000081526004018080602001828103825260158152602001807f426574206e65656420746f2062652031206f722030000000000000000000000081525060200191505060405180910390fd5b600060033402905060003390506000809050600061028d6104ce565b9050868114156103a2576001915060405180606001604052808473ffffffffffffffffffffffffffffffffffffffff16815260200160648152602001831515815250507f26ae5bf131aa854853823b9785f17dbfb3645fd16bc89befa992eee4e713fdcf33858484604051808573ffffffffffffffffffffffffffffffffffffffff1673ffffffffffffffffffffffffffffffffffffffff1681526020018481526020018315151515815260200182815260200194505050505060405180910390a13373ffffffffffffffffffffffffffffffffffffffff166108fc859081150290604051600060405180830381858888f19350505050158015610395573d6000803e3d6000fd5b508195505050505061045f565b60405180606001604052808473ffffffffffffffffffffffffffffffffffffffff16815260200160648152602001831515815250507f26ae5bf131aa854853823b9785f17dbfb3645fd16bc89befa992eee4e713fdcf33858484604051808573ffffffffffffffffffffffffffffffffffffffff1673ffffffffffffffffffffffffffffffffffffffff1681526020018481526020018315151515815260200182815260200194505050505060405180910390a160009550505050505b50919050565b60003073ffffffffffffffffffffffffffffffffffffffff1631905090565b3373ffffffffffffffffffffffffffffffffffffffff166108fc829081150290604051600060405180830381858888f193505050501580156104ca573d6000803e3d6000fd5b5050565b6000600242816104da57fe5b06905090565b6000809054906101000a900473ffffffffffffffffffffffffffffffffffffffff1681565b60015481565b670de0b6b3a76400008034101561052157600080fd5b346001600082825401925050819055505056fea265627a7a72315820ea517d5357ddd831433e8cc4c041e1ae7d871d95bc6e2b0fd295e0e1f27c676364736f6c634300050c0032",
  "source": "pragma solidity 0.5.12;\nimport \"./Ownable.sol\";\n\ncontract CoinFlip is Ownable {\n\n    struct Bet {\n      address playerAddress;\n      uint amount;\n      bool betResult;\n    }\n    event betPlaced(address playerAddress, uint amount, bool betWon, uint flipResult);\n    modifier costs(uint cost){\n        require(msg.value >= cost);\n        _;\n    }\n\n    function placeBet(uint betOn) public payable costs(1 ether) returns(bool) {\n     require(betOn == 1 || betOn == 0, \"Bet need to be 1 or 0\");\n     uint potentialWin =  msg.value*3;\n     address playerAddress = msg.sender;\n     bool betWon = false;\n     uint flipResult = flipCoin();\n\n       if(flipResult == betOn) {\n           betWon = true;\n           Bet(playerAddress, 100, betWon);\n           emit betPlaced(msg.sender, potentialWin, betWon, flipResult);\n           msg.sender.transfer(potentialWin);\n           return betWon;\n       } else {\n            Bet(playerAddress, 100, betWon);\n           emit betPlaced(msg.sender, potentialWin, betWon, flipResult);\n           return false;\n       }\n\n    }\n\n   function withdraw(uint amount) public {\n       msg.sender.transfer(amount);\n   }\n\n   function getBalance() public view returns(uint){\n       return address(this).balance;\n   }\n\n   function fundContract() public payable costs(1 ether) {\n      balance += msg.value;\n    }\n\n   function flipCoin() public view returns(uint) {\n       return now % 2;\n   }\n}\n",
  "sourcePath": "/Users/jsd/lab/ethad/CoinFlip/contracts/CoinFlip.sol",
  "compiler": {
    "name": "solc",
    "version": "0.5.12+commit.7709ece9.Emscripten.clang"
  },
  "schemaVersion": "3.0.23",
  "updatedAt": "2020-05-13T13:15:23.725Z",
  "networkType": "ethereum",
  "devdoc": {
    "methods": {}
  },
  "userdoc": {
    "methods": {}
  }
}