{
  "contractName": "CoinFlip",
  "abi": [
    {
      "inputs": [],
      "payable": false,
      "stateMutability": "nonpayable",
      "type": "constructor"
    },
    {
      "anonymous": false,
      "inputs": [
        {
          "indexed": true,
          "internalType": "bytes32",
          "name": "queryId",
          "type": "bytes32"
        },
        {
          "indexed": false,
          "internalType": "address",
          "name": "playerAddress",
          "type": "address"
        },
        {
          "indexed": false,
          "internalType": "uint256",
          "name": "betAmount",
          "type": "uint256"
        },
        {
          "indexed": false,
          "internalType": "uint256",
          "name": "amountToWin",
          "type": "uint256"
        },
        {
          "indexed": false,
          "internalType": "uint256",
          "name": "betOn",
          "type": "uint256"
        },
        {
          "indexed": false,
          "internalType": "uint256",
          "name": "latestNumber",
          "type": "uint256"
        },
        {
          "indexed": false,
          "internalType": "bool",
          "name": "flipResult",
          "type": "bool"
        }
      ],
      "name": "betPlaced",
      "type": "event"
    },
    {
      "anonymous": false,
      "inputs": [
        {
          "indexed": false,
          "internalType": "uint256",
          "name": "randomNumber",
          "type": "uint256"
        }
      ],
      "name": "generatedRandomNumber",
      "type": "event"
    },
    {
      "anonymous": false,
      "inputs": [
        {
          "indexed": false,
          "internalType": "string",
          "name": "description",
          "type": "string"
        }
      ],
      "name": "logNewProvableQuery",
      "type": "event"
    },
    {
      "anonymous": false,
      "inputs": [
        {
          "indexed": true,
          "internalType": "bytes32",
          "name": "queryId",
          "type": "bytes32"
        },
        {
          "indexed": false,
          "internalType": "address",
          "name": "playerAddress",
          "type": "address"
        }
      ],
      "name": "logQueryId",
      "type": "event"
    },
    {
      "constant": true,
      "inputs": [],
      "name": "balance",
      "outputs": [
        {
          "internalType": "uint256",
          "name": "",
          "type": "uint256"
        }
      ],
      "payable": false,
      "stateMutability": "view",
      "type": "function"
    },
    {
      "constant": true,
      "inputs": [],
      "name": "latestNumber",
      "outputs": [
        {
          "internalType": "uint256",
          "name": "",
          "type": "uint256"
        }
      ],
      "payable": false,
      "stateMutability": "view",
      "type": "function"
    },
    {
      "constant": true,
      "inputs": [],
      "name": "owner",
      "outputs": [
        {
          "internalType": "address payable",
          "name": "",
          "type": "address"
        }
      ],
      "payable": false,
      "stateMutability": "view",
      "type": "function"
    },
    {
      "constant": false,
      "inputs": [
        {
          "internalType": "uint256",
          "name": "betOn",
          "type": "uint256"
        }
      ],
      "name": "placeBet",
      "outputs": [],
      "payable": true,
      "stateMutability": "payable",
      "type": "function"
    },
    {
      "constant": false,
      "inputs": [
        {
          "internalType": "bytes32",
          "name": "_myid",
          "type": "bytes32"
        },
        {
          "internalType": "string",
          "name": "_result",
          "type": "string"
        }
      ],
      "name": "__callback",
      "outputs": [],
      "payable": false,
      "stateMutability": "nonpayable",
      "type": "function"
    },
    {
      "constant": false,
      "inputs": [
        {
          "internalType": "bytes32",
          "name": "_queryId",
          "type": "bytes32"
        },
        {
          "internalType": "string",
          "name": "_result",
          "type": "string"
        },
        {
          "internalType": "bytes",
          "name": "_proof",
          "type": "bytes"
        }
      ],
      "name": "__callback",
      "outputs": [],
      "payable": false,
      "stateMutability": "nonpayable",
      "type": "function"
    },
    {
      "constant": true,
      "inputs": [],
      "name": "getBalance",
      "outputs": [
        {
          "internalType": "uint256",
          "name": "",
          "type": "uint256"
        }
      ],
      "payable": false,
      "stateMutability": "view",
      "type": "function"
    },
    {
      "constant": true,
      "inputs": [
        {
          "internalType": "address",
          "name": "playerAddress",
          "type": "address"
        }
      ],
      "name": "getPlayerBalance",
      "outputs": [
        {
          "internalType": "uint256",
          "name": "",
          "type": "uint256"
        }
      ],
      "payable": false,
      "stateMutability": "view",
      "type": "function"
    },
    {
      "constant": false,
      "inputs": [
        {
          "internalType": "address payable",
          "name": "playerAddress",
          "type": "address"
        }
      ],
      "name": "payoutPlayer",
      "outputs": [],
      "payable": true,
      "stateMutability": "payable",
      "type": "function"
    },
    {
      "constant": false,
      "inputs": [],
      "name": "fundContract",
      "outputs": [],
      "payable": true,
      "stateMutability": "payable",
      "type": "function"
    },
    {
      "constant": false,
      "inputs": [],
      "name": "close",
      "outputs": [],
      "payable": false,
      "stateMutability": "nonpayable",
      "type": "function"
    }
  ],
  "bytecode": "0x60806040523480156200001157600080fd5b50336000806101000a81548173ffffffffffffffffffffffffffffffffffffffff021916908373ffffffffffffffffffffffffffffffffffffffff16021790555062000067603060f81b6200006d60201b60201c565b62000a91565b600073ffffffffffffffffffffffffffffffffffffffff16600360009054906101000a900473ffffffffffffffffffffffffffffffffffffffff1673ffffffffffffffffffffffffffffffffffffffff161480620000fd57506000620000fb600360009054906101000a900473ffffffffffffffffffffffffffffffffffffffff16620003d360201b60201c565b145b156200011757620001156000620003de60201b60201c565b505b600360009054906101000a900473ffffffffffffffffffffffffffffffffffffffff1673ffffffffffffffffffffffffffffffffffffffff166338cc48316040518163ffffffff1660e01b8152600401602060405180830381600087803b1580156200018257600080fd5b505af115801562000197573d6000803e3d6000fd5b505050506040513d6020811015620001ae57600080fd5b810190808051906020019092919050505073ffffffffffffffffffffffffffffffffffffffff16600260009054906101000a900473ffffffffffffffffffffffffffffffffffffffff1673ffffffffffffffffffffffffffffffffffffffff1614620002fd57600360009054906101000a900473ffffffffffffffffffffffffffffffffffffffff1673ffffffffffffffffffffffffffffffffffffffff166338cc48316040518163ffffffff1660e01b8152600401602060405180830381600087803b1580156200027f57600080fd5b505af115801562000294573d6000803e3d6000fd5b505050506040513d6020811015620002ab57600080fd5b8101908080519060200190929190505050600260006101000a81548173ffffffffffffffffffffffffffffffffffffffff021916908373ffffffffffffffffffffffffffffffffffffffff1602179055505b600260009054906101000a900473ffffffffffffffffffffffffffffffffffffffff1673ffffffffffffffffffffffffffffffffffffffff1663688dcfd7826040518263ffffffff1660e01b815260040180827effffffffffffffffffffffffffffffffffffffffffffffffffffffffffffff19167effffffffffffffffffffffffffffffffffffffffffffffffffffffffffffff19168152602001915050600060405180830381600087803b158015620003b757600080fd5b505af1158015620003cc573d6000803e3d6000fd5b5050505050565b6000813b9050919050565b6000620003f0620003f760201b60201c565b9050919050565b6000806200041f731d3b2638a7cc9f2cb3d298a3da7a90b67e5506ed620003d360201b60201c565b1115620004cb57731d3b2638a7cc9f2cb3d298a3da7a90b67e5506ed600360006101000a81548173ffffffffffffffffffffffffffffffffffffffff021916908373ffffffffffffffffffffffffffffffffffffffff160217905550620004c16040518060400160405280600b81526020017f6574685f6d61696e6e6574000000000000000000000000000000000000000000815250620009c660201b60201c565b60019050620009c3565b6000620004f273c03a2615d5efaf5f49f60b7bb6583eaec212fdf1620003d360201b60201c565b11156200059e5773c03a2615d5efaf5f49f60b7bb6583eaec212fdf1600360006101000a81548173ffffffffffffffffffffffffffffffffffffffff021916908373ffffffffffffffffffffffffffffffffffffffff160217905550620005946040518060400160405280600c81526020017f6574685f726f707374656e330000000000000000000000000000000000000000815250620009c660201b60201c565b60019050620009c3565b6000620005c573b7a07bcf2ba2f2703b24c0691b5278999c59ac7e620003d360201b60201c565b1115620006715773b7a07bcf2ba2f2703b24c0691b5278999c59ac7e600360006101000a81548173ffffffffffffffffffffffffffffffffffffffff021916908373ffffffffffffffffffffffffffffffffffffffff160217905550620006676040518060400160405280600981526020017f6574685f6b6f76616e0000000000000000000000000000000000000000000000815250620009c660201b60201c565b60019050620009c3565b60006200069873146500cfd35b22e4a392fe0adc06de1a1368ed48620003d360201b60201c565b1115620007445773146500cfd35b22e4a392fe0adc06de1a1368ed48600360006101000a81548173ffffffffffffffffffffffffffffffffffffffff021916908373ffffffffffffffffffffffffffffffffffffffff1602179055506200073a6040518060400160405280600b81526020017f6574685f72696e6b656279000000000000000000000000000000000000000000815250620009c660201b60201c565b60019050620009c3565b60006200076b73a2998efd205fb9d4b4963afb70778d6354ad3a41620003d360201b60201c565b1115620008175773a2998efd205fb9d4b4963afb70778d6354ad3a41600360006101000a81548173ffffffffffffffffffffffffffffffffffffffff021916908373ffffffffffffffffffffffffffffffffffffffff1602179055506200080d6040518060400160405280600a81526020017f6574685f676f65726c6900000000000000000000000000000000000000000000815250620009c660201b60201c565b60019050620009c3565b60006200083e736f485c8bf6fc43ea212e93bbf8ce046c7f1cb475620003d360201b60201c565b1115620008a457736f485c8bf6fc43ea212e93bbf8ce046c7f1cb475600360006101000a81548173ffffffffffffffffffffffffffffffffffffffff021916908373ffffffffffffffffffffffffffffffffffffffff16021790555060019050620009c3565b6000620008cb7320e12a1f859b3feae5fb2a0a32c18f5a65555bbf620003d360201b60201c565b111562000931577320e12a1f859b3feae5fb2a0a32c18f5a65555bbf600360006101000a81548173ffffffffffffffffffffffffffffffffffffffff021916908373ffffffffffffffffffffffffffffffffffffffff16021790555060019050620009c3565b6000620009587351efaf4c8b3c9afbd5ab9f4bbc82784ab6ef8faa620003d360201b60201c565b1115620009be577351efaf4c8b3c9afbd5ab9f4bbc82784ab6ef8faa600360006101000a81548173ffffffffffffffffffffffffffffffffffffffff021916908373ffffffffffffffffffffffffffffffffffffffff16021790555060019050620009c3565b600090505b90565b8060049080519060200190620009de929190620009e2565b5050565b828054600181600116156101000203166002900490600052602060002090601f016020900481019282601f1062000a2557805160ff191683800117855562000a56565b8280016001018555821562000a56579182015b8281111562000a5557825182559160200191906001019062000a38565b5b50905062000a65919062000a69565b5090565b62000a8e91905b8082111562000a8a57600081600090555060010162000a70565b5090565b90565b61334a8062000aa16000396000f3fe60806040526004361061009c5760003560e01c80638da5cb5b116100645780638da5cb5b1461034c578063b69ef8a8146103a3578063bd097e21146103ce578063d965096e146103d8578063dc34b0aa1461041c578063e2734c93146104475761009c565b806310fe7c48146100a157806312065fe0146100cf57806327dc297e146100fa57806338bbfa50146101cc57806343d726d614610335575b600080fd5b6100cd600480360360208110156100b757600080fd5b81019080803590602001909291905050506104ac565b005b3480156100db57600080fd5b506100e4610636565b6040518082815260200191505060405180910390f35b34801561010657600080fd5b506101ca6004803603604081101561011d57600080fd5b81019080803590602001909291908035906020019064010000000081111561014457600080fd5b82018360208201111561015657600080fd5b8035906020019184600183028401116401000000008311171561017857600080fd5b91908080601f016020809104026020016040519081016040528093929190818152602001838380828437600081840152601f19601f820116905080830192505050505050509192919290505050610655565b005b3480156101d857600080fd5b50610333600480360360608110156101ef57600080fd5b81019080803590602001909291908035906020019064010000000081111561021657600080fd5b82018360208201111561022857600080fd5b8035906020019184600183028401116401000000008311171561024a57600080fd5b91908080601f016020809104026020016040519081016040528093929190818152602001838380828437600081840152601f19601f820116905080830192505050505050509192919290803590602001906401000000008111156102ad57600080fd5b8201836020820111156102bf57600080fd5b803590602001918460018302840111640100000000831117156102e157600080fd5b91908080601f016020809104026020016040519081016040528093929190818152602001838380828437600081840152601f19601f820116905080830192505050505050509192919290505050610698565b005b34801561034157600080fd5b5061034a61091b565b005b34801561035857600080fd5b506103616109ea565b604051808273ffffffffffffffffffffffffffffffffffffffff1673ffffffffffffffffffffffffffffffffffffffff16815260200191505060405180910390f35b3480156103af57600080fd5b506103b8610a0f565b6040518082815260200191505060405180910390f35b6103d6610a15565b005b61041a600480360360208110156103ee57600080fd5b81019080803573ffffffffffffffffffffffffffffffffffffffff169060200190929190505050610a40565b005b34801561042857600080fd5b50610431610b76565b6040518082815260200191505060405180910390f35b34801561045357600080fd5b506104966004803603602081101561046a57600080fd5b81019080803573ffffffffffffffffffffffffffffffffffffffff169060200190929190505050610b7c565b6040518082815260200191505060405180910390f35b66b1a2bc2ec50000803410156104c157600080fd5b6000809050600062030d40905060006104dc83600184610bca565b905060405180606001604052803373ffffffffffffffffffffffffffffffffffffffff168152602001348152602001868152506008600083815260200190815260200160002060008201518160000160006101000a81548173ffffffffffffffffffffffffffffffffffffffff021916908373ffffffffffffffffffffffffffffffffffffffff16021790555060208201518160010155604082015181600201559050507f94f2559b5e2b297de3db1587daf2352e872ada3dad01dab9ee3733592fa22ed36040518080602001828103825260368152602001806132e06036913960400191505060405180910390a1807ff26e2eed1df9ebd2f4b1f2e390557c5ae61818c974089479c15b66ae7c81042033604051808273ffffffffffffffffffffffffffffffffffffffff1673ffffffffffffffffffffffffffffffffffffffff16815260200191505060405180910390a25050505050565b60003073ffffffffffffffffffffffffffffffffffffffff1631905090565b610694828260006040519080825280601f01601f19166020018201604052801561068e5781602001600182028038833980820191505090505b50610698565b5050565b6106a0611165565b73ffffffffffffffffffffffffffffffffffffffff163373ffffffffffffffffffffffffffffffffffffffff16146106d757600080fd5b610756826040516020018082805190602001908083835b6020831061071157805182526020820191506020810190506020830392506106ee565b6001836020036101000a0380198251168184511680821785525050505050509050019150506040516020818303038152906040528051906020012060001c6002611485565b60078190555060006008600085815260200190815260200160002060010154905060006107c0826107bb6040518060400160405280600681526020017f52414e444f4d00000000000000000000000000000000000000000000000000008152506114cf565b611863565b905060006107cf8260026118ad565b905060006008600088815260200190815260200160002060000160009054906101000a900473ffffffffffffffffffffffffffffffffffffffff16905060008090506000600860008a815260200190815260200160002060020154905080600754141561084557600191506108448385611933565b5b7fc13d60fe9dffdb6908d2d446cd18134373a51db0738ee04f296eeb9128121cbc6007546040518082815260200191505060405180910390a1887f2db6ca9d09302f16ac4692c94eff1534615edbf071c6403539dc35ac9da4c7678488878560075488604051808773ffffffffffffffffffffffffffffffffffffffff1673ffffffffffffffffffffffffffffffffffffffff16815260200186815260200185815260200184815260200183815260200182151515158152602001965050505050505060405180910390a2505050505050505050565b6000809054906101000a900473ffffffffffffffffffffffffffffffffffffffff1673ffffffffffffffffffffffffffffffffffffffff163373ffffffffffffffffffffffffffffffffffffffff161461097457600080fd5b3373ffffffffffffffffffffffffffffffffffffffff166108fc6001549081150290604051600060405180830381858888f193505050501580156109bc573d6000803e3d6000fd5b5060006001819055506000600154146109d157fe5b3373ffffffffffffffffffffffffffffffffffffffff16ff5b6000809054906101000a900473ffffffffffffffffffffffffffffffffffffffff1681565b60015481565b670de0b6b3a764000080341015610a2b57600080fd5b610a37600154346119c9565b60018190555050565b8073ffffffffffffffffffffffffffffffffffffffff163373ffffffffffffffffffffffffffffffffffffffff1614610a7857600080fd5b6000610a8382610b7c565b905060008190506000600960008573ffffffffffffffffffffffffffffffffffffffff1673ffffffffffffffffffffffffffffffffffffffff168152602001908152602001600020819055506000600960008573ffffffffffffffffffffffffffffffffffffffff1673ffffffffffffffffffffffffffffffffffffffff1681526020019081526020016000205414610b1857fe5b8273ffffffffffffffffffffffffffffffffffffffff166108fc829081150290604051600060405180830381858888f19350505050158015610b5e573d6000803e3d6000fd5b50610b6b60015482611863565b600181905550505050565b60075481565b600080600960008473ffffffffffffffffffffffffffffffffffffffff1673ffffffffffffffffffffffffffffffffffffffff16815260200190815260200160002054905080915050919050565b60008083118015610bdc575060208311155b610be557600080fd5b600a84029350606060016040519080825280601f01601f191660200182016040528015610c215781602001600182028038833980820191505090505b5090508360f81b81600081518110610c3557fe5b60200101907effffffffffffffffffffffffffffffffffffffffffffffffffffffffffffff1916908160001a905350606060206040519080825280601f01601f191660200182016040528015610c9a5781602001600182028038833980820191505090505b509050606060206040519080825280601f01601f191660200182016040528015610cd35781602001600182028038833980820191505090505b5090506000610ce0611a51565b905060208352424118600143034018602084015260208252806020830152606060206040519080825280601f01601f191660200182016040528015610d345781602001600182028038833980820191505090505b509050886020820152606060086040519080825280601f01601f191660200182016040528015610d735781602001600182028038833980820191505090505b509050610d868260186008846000611d71565b50610d8f6131d8565b60405180608001604052808781526020018881526020018681526020018481525090506000610df46040518060400160405280600681526020017f72616e646f6d0000000000000000000000000000000000000000000000000000815250838c611dd0565b9050606060086040519080825280601f01601f191660200182016040528015610e2c5781602001600182028038833980820191505090505b50905060208401517f0100000000000000000000000000000000000000000000000000000000000000810460278301537e01000000000000000000000000000000000000000000000000000000000000810460268301537d010000000000000000000000000000000000000000000000000000000000810460258301537c0100000000000000000000000000000000000000000000000000000000810460248301537b01000000000000000000000000000000000000000000000000000000810460238301537a010000000000000000000000000000000000000000000000000000810460228301537901000000000000000000000000000000000000000000000000008104602183015378010000000000000000000000000000000000000000000000008104602083015350611152828285600160048110610f6b57fe5b6020020151600287600060048110610f7f57fe5b60200201516040518082805190602001908083835b60208310610fb75780518252602082019150602081019050602083039250610f94565b6001836020036101000a038019825116818451168082178552505050505050905001915050602060405180830381855afa158015610ff9573d6000803e3d6000fd5b5050506040513d602081101561100e57600080fd5b81019080805190602001909291905050508760026004811061102c57fe5b60200201516040516020018085805190602001908083835b602083106110675780518252602082019150602081019050602083039250611044565b6001836020036101000a03801982511681845116808217855250505050505090500184805190602001908083835b602083106110b85780518252602082019150602081019050602083039250611095565b6001836020036101000a03801982511681845116808217855250505050505090500183815260200182805190602001908083835b6020831061110f57805182526020820191506020810190506020830392506110ec565b6001836020036101000a0380198251168184511680821785525050505050509050019450505050506040516020818303038152906040528051906020012061213f565b8199505050505050505050509392505050565b60008073ffffffffffffffffffffffffffffffffffffffff16600360009054906101000a900473ffffffffffffffffffffffffffffffffffffffff1673ffffffffffffffffffffffffffffffffffffffff1614806111ed575060006111eb600360009054906101000a900473ffffffffffffffffffffffffffffffffffffffff1661215b565b145b156111fe576111fc6000612166565b505b600360009054906101000a900473ffffffffffffffffffffffffffffffffffffffff1673ffffffffffffffffffffffffffffffffffffffff166338cc48316040518163ffffffff1660e01b8152600401602060405180830381600087803b15801561126857600080fd5b505af115801561127c573d6000803e3d6000fd5b505050506040513d602081101561129257600080fd5b810190808051906020019092919050505073ffffffffffffffffffffffffffffffffffffffff16600260009054906101000a900473ffffffffffffffffffffffffffffffffffffffff1673ffffffffffffffffffffffffffffffffffffffff16146113dd57600360009054906101000a900473ffffffffffffffffffffffffffffffffffffffff1673ffffffffffffffffffffffffffffffffffffffff166338cc48316040518163ffffffff1660e01b8152600401602060405180830381600087803b15801561136157600080fd5b505af1158015611375573d6000803e3d6000fd5b505050506040513d602081101561138b57600080fd5b8101908080519060200190929190505050600260006101000a81548173ffffffffffffffffffffffffffffffffffffffff021916908373ffffffffffffffffffffffffffffffffffffffff1602179055505b600260009054906101000a900473ffffffffffffffffffffffffffffffffffffffff1673ffffffffffffffffffffffffffffffffffffffff1663c281d19e6040518163ffffffff1660e01b815260040160206040518083038186803b15801561144557600080fd5b505afa158015611459573d6000803e3d6000fd5b505050506040513d602081101561146f57600080fd5b8101908080519060200190929190505050905090565b60006114c783836040518060400160405280601881526020017f536166654d6174683a206d6f64756c6f206279207a65726f0000000000000000815250612177565b905092915050565b60008073ffffffffffffffffffffffffffffffffffffffff16600360009054906101000a900473ffffffffffffffffffffffffffffffffffffffff1673ffffffffffffffffffffffffffffffffffffffff16148061155757506000611555600360009054906101000a900473ffffffffffffffffffffffffffffffffffffffff1661215b565b145b15611568576115666000612166565b505b600360009054906101000a900473ffffffffffffffffffffffffffffffffffffffff1673ffffffffffffffffffffffffffffffffffffffff166338cc48316040518163ffffffff1660e01b8152600401602060405180830381600087803b1580156115d257600080fd5b505af11580156115e6573d6000803e3d6000fd5b505050506040513d60208110156115fc57600080fd5b810190808051906020019092919050505073ffffffffffffffffffffffffffffffffffffffff16600260009054906101000a900473ffffffffffffffffffffffffffffffffffffffff1673ffffffffffffffffffffffffffffffffffffffff161461174757600360009054906101000a900473ffffffffffffffffffffffffffffffffffffffff1673ffffffffffffffffffffffffffffffffffffffff166338cc48316040518163ffffffff1660e01b8152600401602060405180830381600087803b1580156116cb57600080fd5b505af11580156116df573d6000803e3d6000fd5b505050506040513d60208110156116f557600080fd5b8101908080519060200190929190505050600260006101000a81548173ffffffffffffffffffffffffffffffffffffffff021916908373ffffffffffffffffffffffffffffffffffffffff1602179055505b600260009054906101000a900473ffffffffffffffffffffffffffffffffffffffff1673ffffffffffffffffffffffffffffffffffffffff1663524f3889836040518263ffffffff1660e01b81526004018080602001828103825283818151815260200191508051906020019080838360005b838110156117d55780820151818401526020810190506117ba565b50505050905090810190601f1680156118025780820380516001836020036101000a031916815260200191505b5092505050602060405180830381600087803b15801561182157600080fd5b505af1158015611835573d6000803e3d6000fd5b505050506040513d602081101561184b57600080fd5b81019080805190602001909291905050509050919050565b60006118a583836040518060400160405280601e81526020017f536166654d6174683a207375627472616374696f6e206f766572666c6f770000815250612238565b905092915050565b6000808314156118c0576000905061192d565b60008284029050828482816118d157fe5b0414611928576040517f08c379a00000000000000000000000000000000000000000000000000000000081526004018080602001828103825260218152602001806132bf6021913960400191505060405180910390fd5b809150505b92915050565b6000600960008473ffffffffffffffffffffffffffffffffffffffff1673ffffffffffffffffffffffffffffffffffffffff16815260200190815260200160002054905061198181836119c9565b600960008573ffffffffffffffffffffffffffffffffffffffff1673ffffffffffffffffffffffffffffffffffffffff16815260200190815260200160002081905550505050565b600080828401905083811015611a47576040517f08c379a000000000000000000000000000000000000000000000000000000000815260040180806020018281038252601b8152602001807f536166654d6174683a206164646974696f6e206f766572666c6f77000000000081525060200191505060405180910390fd5b8091505092915050565b60008073ffffffffffffffffffffffffffffffffffffffff16600360009054906101000a900473ffffffffffffffffffffffffffffffffffffffff1673ffffffffffffffffffffffffffffffffffffffff161480611ad957506000611ad7600360009054906101000a900473ffffffffffffffffffffffffffffffffffffffff1661215b565b145b15611aea57611ae86000612166565b505b600360009054906101000a900473ffffffffffffffffffffffffffffffffffffffff1673ffffffffffffffffffffffffffffffffffffffff166338cc48316040518163ffffffff1660e01b8152600401602060405180830381600087803b158015611b5457600080fd5b505af1158015611b68573d6000803e3d6000fd5b505050506040513d6020811015611b7e57600080fd5b810190808051906020019092919050505073ffffffffffffffffffffffffffffffffffffffff16600260009054906101000a900473ffffffffffffffffffffffffffffffffffffffff1673ffffffffffffffffffffffffffffffffffffffff1614611cc957600360009054906101000a900473ffffffffffffffffffffffffffffffffffffffff1673ffffffffffffffffffffffffffffffffffffffff166338cc48316040518163ffffffff1660e01b8152600401602060405180830381600087803b158015611c4d57600080fd5b505af1158015611c61573d6000803e3d6000fd5b505050506040513d6020811015611c7757600080fd5b8101908080519060200190929190505050600260006101000a81548173ffffffffffffffffffffffffffffffffffffffff021916908373ffffffffffffffffffffffffffffffffffffffff1602179055505b600260009054906101000a900473ffffffffffffffffffffffffffffffffffffffff1673ffffffffffffffffffffffffffffffffffffffff1663abaa5f3e6040518163ffffffff1660e01b815260040160206040518083038186803b158015611d3157600080fd5b505afa158015611d45573d6000803e3d6000fd5b505050506040513d6020811015611d5b57600080fd5b8101908080519060200190929190505050905090565b6060600082850190508084511015611d8857600080fd5b600086602001905060008460200190505b868860200101821015611dc15781890151808288015250602082019150602081019050611d99565b85935050505095945050505050565b60008073ffffffffffffffffffffffffffffffffffffffff16600360009054906101000a900473ffffffffffffffffffffffffffffffffffffffff1673ffffffffffffffffffffffffffffffffffffffff161480611e5857506000611e56600360009054906101000a900473ffffffffffffffffffffffffffffffffffffffff1661215b565b145b15611e6957611e676000612166565b505b600360009054906101000a900473ffffffffffffffffffffffffffffffffffffffff1673ffffffffffffffffffffffffffffffffffffffff166338cc48316040518163ffffffff1660e01b8152600401602060405180830381600087803b158015611ed357600080fd5b505af1158015611ee7573d6000803e3d6000fd5b505050506040513d6020811015611efd57600080fd5b810190808051906020019092919050505073ffffffffffffffffffffffffffffffffffffffff16600260009054906101000a900473ffffffffffffffffffffffffffffffffffffffff1673ffffffffffffffffffffffffffffffffffffffff161461204857600360009054906101000a900473ffffffffffffffffffffffffffffffffffffffff1673ffffffffffffffffffffffffffffffffffffffff166338cc48316040518163ffffffff1660e01b8152600401602060405180830381600087803b158015611fcc57600080fd5b505af1158015611fe0573d6000803e3d6000fd5b505050506040513d6020811015611ff657600080fd5b8101908080519060200190929190505050600260006101000a81548173ffffffffffffffffffffffffffffffffffffffff021916908373ffffffffffffffffffffffffffffffffffffffff1602179055505b6060600460405190808252806020026020018201604052801561207f57816020015b606081526020019060019003908161206a5790505b5090508360006004811061208f57fe5b6020020151816000815181106120a157fe5b6020026020010181905250836001600481106120b957fe5b6020020151816001815181106120cb57fe5b6020026020010181905250836002600481106120e357fe5b6020020151816002815181106120f557fe5b60200260200101819052508360036004811061210d57fe5b60200201518160038151811061211f57fe5b60200260200101819052506121358582856122f8565b9150509392505050565b8060056000848152602001908152602001600020819055505050565b6000813b9050919050565b600061217061285e565b9050919050565b6000808314158290612224576040517f08c379a00000000000000000000000000000000000000000000000000000000081526004018080602001828103825283818151815260200191508051906020019080838360005b838110156121e95780820151818401526020810190506121ce565b50505050905090810190601f1680156122165780820380516001836020036101000a031916815260200191505b509250505060405180910390fd5b5082848161222e57fe5b0690509392505050565b60008383111582906122e5576040517f08c379a00000000000000000000000000000000000000000000000000000000081526004018080602001828103825283818151815260200191508051906020019080838360005b838110156122aa57808201518184015260208101905061228f565b50505050905090810190601f1680156122d75780820380516001836020036101000a031916815260200191505b509250505060405180910390fd5b5060008385039050809150509392505050565b60008073ffffffffffffffffffffffffffffffffffffffff16600360009054906101000a900473ffffffffffffffffffffffffffffffffffffffff1673ffffffffffffffffffffffffffffffffffffffff1614806123805750600061237e600360009054906101000a900473ffffffffffffffffffffffffffffffffffffffff1661215b565b145b156123915761238f6000612166565b505b600360009054906101000a900473ffffffffffffffffffffffffffffffffffffffff1673ffffffffffffffffffffffffffffffffffffffff166338cc48316040518163ffffffff1660e01b8152600401602060405180830381600087803b1580156123fb57600080fd5b505af115801561240f573d6000803e3d6000fd5b505050506040513d602081101561242557600080fd5b810190808051906020019092919050505073ffffffffffffffffffffffffffffffffffffffff16600260009054906101000a900473ffffffffffffffffffffffffffffffffffffffff1673ffffffffffffffffffffffffffffffffffffffff161461257057600360009054906101000a900473ffffffffffffffffffffffffffffffffffffffff1673ffffffffffffffffffffffffffffffffffffffff166338cc48316040518163ffffffff1660e01b8152600401602060405180830381600087803b1580156124f457600080fd5b505af1158015612508573d6000803e3d6000fd5b505050506040513d602081101561251e57600080fd5b8101908080519060200190929190505050600260006101000a81548173ffffffffffffffffffffffffffffffffffffffff021916908373ffffffffffffffffffffffffffffffffffffffff1602179055505b6000600260009054906101000a900473ffffffffffffffffffffffffffffffffffffffff1673ffffffffffffffffffffffffffffffffffffffff16632ef3accc86856040518363ffffffff1660e01b81526004018080602001838152602001828103825284818151815260200191508051906020019080838360005b838110156126075780820151818401526020810190506125ec565b50505050905090810190601f1680156126345780820380516001836020036101000a031916815260200191505b509350505050602060405180830381600087803b15801561265457600080fd5b505af1158015612668573d6000803e3d6000fd5b505050506040513d602081101561267e57600080fd5b81019080805190602001909291905050509050823a02670de0b6b3a7640000018111156126b1576000801b915050612857565b60606126bc85612db5565b9050600260009054906101000a900473ffffffffffffffffffffffffffffffffffffffff1673ffffffffffffffffffffffffffffffffffffffff1663c55c1cb68360008985896040518663ffffffff1660e01b8152600401808581526020018060200180602001848152602001838103835286818151815260200191508051906020019080838360005b83811015612761578082015181840152602081019050612746565b50505050905090810190601f16801561278e5780820380516001836020036101000a031916815260200191505b50838103825285818151815260200191508051906020019080838360005b838110156127c75780820151818401526020810190506127ac565b50505050905090810190601f1680156127f45780820380516001836020036101000a031916815260200191505b5096505050505050506020604051808303818588803b15801561281657600080fd5b505af115801561282a573d6000803e3d6000fd5b50505050506040513d602081101561284157600080fd5b8101908080519060200190929190505050925050505b9392505050565b60008061287e731d3b2638a7cc9f2cb3d298a3da7a90b67e5506ed61215b565b111561292057731d3b2638a7cc9f2cb3d298a3da7a90b67e5506ed600360006101000a81548173ffffffffffffffffffffffffffffffffffffffff021916908373ffffffffffffffffffffffffffffffffffffffff1602179055506129176040518060400160405280600b81526020017f6574685f6d61696e6e6574000000000000000000000000000000000000000000815250612e35565b60019050612db2565b600061293f73c03a2615d5efaf5f49f60b7bb6583eaec212fdf161215b565b11156129e15773c03a2615d5efaf5f49f60b7bb6583eaec212fdf1600360006101000a81548173ffffffffffffffffffffffffffffffffffffffff021916908373ffffffffffffffffffffffffffffffffffffffff1602179055506129d86040518060400160405280600c81526020017f6574685f726f707374656e330000000000000000000000000000000000000000815250612e35565b60019050612db2565b6000612a0073b7a07bcf2ba2f2703b24c0691b5278999c59ac7e61215b565b1115612aa25773b7a07bcf2ba2f2703b24c0691b5278999c59ac7e600360006101000a81548173ffffffffffffffffffffffffffffffffffffffff021916908373ffffffffffffffffffffffffffffffffffffffff160217905550612a996040518060400160405280600981526020017f6574685f6b6f76616e0000000000000000000000000000000000000000000000815250612e35565b60019050612db2565b6000612ac173146500cfd35b22e4a392fe0adc06de1a1368ed4861215b565b1115612b635773146500cfd35b22e4a392fe0adc06de1a1368ed48600360006101000a81548173ffffffffffffffffffffffffffffffffffffffff021916908373ffffffffffffffffffffffffffffffffffffffff160217905550612b5a6040518060400160405280600b81526020017f6574685f72696e6b656279000000000000000000000000000000000000000000815250612e35565b60019050612db2565b6000612b8273a2998efd205fb9d4b4963afb70778d6354ad3a4161215b565b1115612c245773a2998efd205fb9d4b4963afb70778d6354ad3a41600360006101000a81548173ffffffffffffffffffffffffffffffffffffffff021916908373ffffffffffffffffffffffffffffffffffffffff160217905550612c1b6040518060400160405280600a81526020017f6574685f676f65726c6900000000000000000000000000000000000000000000815250612e35565b60019050612db2565b6000612c43736f485c8bf6fc43ea212e93bbf8ce046c7f1cb47561215b565b1115612ca757736f485c8bf6fc43ea212e93bbf8ce046c7f1cb475600360006101000a81548173ffffffffffffffffffffffffffffffffffffffff021916908373ffffffffffffffffffffffffffffffffffffffff16021790555060019050612db2565b6000612cc67320e12a1f859b3feae5fb2a0a32c18f5a65555bbf61215b565b1115612d2a577320e12a1f859b3feae5fb2a0a32c18f5a65555bbf600360006101000a81548173ffffffffffffffffffffffffffffffffffffffff021916908373ffffffffffffffffffffffffffffffffffffffff16021790555060019050612db2565b6000612d497351efaf4c8b3c9afbd5ab9f4bbc82784ab6ef8faa61215b565b1115612dad577351efaf4c8b3c9afbd5ab9f4bbc82784ab6ef8faa600360006101000a81548173ffffffffffffffffffffffffffffffffffffffff021916908373ffffffffffffffffffffffffffffffffffffffff16021790555060019050612db2565b600090505b90565b6060612dbf612e4f565b612dc76131ff565b612dd381610400612e5b565b612ddc81612ea5565b60008090505b8351811015612e1e57612e11848281518110612dfa57fe5b602002602001015183612eb390919063ffffffff16565b8080600101915050612de2565b50612e2881612ed8565b8060000151915050919050565b8060049080519060200190612e4b929190613219565b5050565b60405180590338823950565b6000819050600060208281612e6c57fe5b0614612e855760208181612e7c57fe5b06602003810190505b808360200181815250506040518084526000815281810160405250505050565b612eb0816004612ee6565b50565b612ec08260028351612f07565b612ed3818361304790919063ffffffff16565b505050565b612ee3816007612ee6565b50565b612f03601f60058360ff16901b17836130f290919063ffffffff16565b5050565b60178111612f3357612f2e8160058460ff16901b60ff1617846130f290919063ffffffff16565b613042565b60ff8111612f7457612f58601860058460ff16901b17846130f290919063ffffffff16565b612f6e816001856131329092919063ffffffff16565b50613041565b61ffff8111612fb657612f9a601960058460ff16901b17846130f290919063ffffffff16565b612fb0816002856131329092919063ffffffff16565b50613040565b63ffffffff8111612ffa57612fde601a60058460ff16901b17846130f290919063ffffffff16565b612ff4816004856131329092919063ffffffff16565b5061303f565b67ffffffffffffffff811161303e57613026601b60058460ff16901b17846130f290919063ffffffff16565b61303c816008856131329092919063ffffffff16565b505b5b5b5b5b505050565b61304f6131ff565b8260200151836000015151835101111561307f5761307e83600261307886602001518651613199565b026131b5565b5b60008060008451905085518051602081830101945086518101825260208701935050505b602081106130c657815183526020830192506020820191506020810390506130a3565b60006001826020036101000a039050801983511681855116818117865250508694505050505092915050565b81602001516001836000015151011115613118576131178260028460200151026131b5565b5b815180516020818301018381536001820183525050505050565b61313a6131ff565b83602001518460000151518301111561316857613167846002613161876020015186613199565b026131b5565b5b60006001836101000a0390508451805184818301018684198251161781528582018352505050849150509392505050565b6000818311156131ab578290506131af565b8190505b92915050565b6060826000015190506131c88383612e5b565b6131d28382613047565b50505050565b60405180608001604052806004905b60608152602001906001900390816131e75790505090565b604051806040016040528060608152602001600081525090565b828054600181600116156101000203166002900490600052602060002090601f016020900481019282601f1061325a57805160ff1916838001178555613288565b82800160010185558215613288579182015b8281111561328757825182559160200191906001019061326c565b5b5090506132959190613299565b5090565b6132bb91905b808211156132b757600081600090555060010161329f565b5090565b9056fe536166654d6174683a206d756c7469706c69636174696f6e206f766572666c6f7750726f7661626c65207175657279207761732073656e742c207374616e64696e6720627920666f722074686520616e737765722e2e2ea265627a7a72315820c4e5f709a5d1ed109dabe65774bf20b7748cc00e134e199d295414cac543f54364736f6c634300050c0032",
  "source": "pragma solidity 0.5.12;\nimport \"./Ownable.sol\";\nimport \"./SafeMath.sol\";\nimport \"./provableAPI.sol\";\n\ncontract CoinFlip is Ownable, usingProvable {\n\n    using SafeMath for uint256;\n\n    uint256 constant NUM_RANDOM_BYTES_REQUESTED = 1;\n    uint256 public latestNumber;\n\n    struct Bet {\n      address payable playerAddress;\n      uint betAmount;\n      uint betOn;\n    }\n\n    event betPlaced(bytes32 indexed queryId, address playerAddress, uint betAmount, uint amountToWin, uint betOn, uint256 latestNumber, bool flipResult);\n    event logNewProvableQuery(string description);\n    event generatedRandomNumber(uint256 randomNumber);\n    event logQueryId(bytes32 indexed queryId, address playerAddress);\n\n    mapping (bytes32 => Bet) private bets;\n    mapping (address => uint ) private playerBalances;\n\n    modifier costs(uint cost){\n        require(msg.value >= cost);\n        _;\n    }\n\n    constructor () public {\n      provable_setProof(proofType_Ledger);\n    }\n\n    function placeBet(uint betOn) public payable costs(0.05 ether) {\n\n        uint256 QUERY_EXECUTION_DELAY = 0;\n        uint256 GAS_FOR_CALLBACK = 200000;\n        bytes32 queryId = provable_newRandomDSQuery(\n            QUERY_EXECUTION_DELAY,\n            NUM_RANDOM_BYTES_REQUESTED,\n            GAS_FOR_CALLBACK\n        );\n\n        bets[queryId] = Bet(msg.sender, msg.value, betOn);\n        emit logNewProvableQuery(\"Provable query was sent, standing by for the answer...\");\n        emit logQueryId(queryId, msg.sender);\n    }\n\n    function __callback( bytes32 _queryId, string memory _result,bytes memory _proof) public {\n        require(msg.sender == provable_cbAddress());\n\n        latestNumber = SafeMath.mod(uint256(keccak256(abi.encodePacked(_result))), 2);\n        uint betAmount =   bets[_queryId].betAmount;\n        uint netBetAmount =  SafeMath.sub(betAmount, provable_getPrice(\"RANDOM\"));\n        uint amountToWin = SafeMath.mul(netBetAmount, 2);\n        address payable playerAddress = bets[_queryId].playerAddress;\n        bool  flipResult = false;\n        uint256 betOn =  bets[_queryId].betOn;\n\n        if(latestNumber == betOn) {\n             flipResult = true;\n             addPlayerBalance(playerAddress, amountToWin);\n        }\n\n        emit generatedRandomNumber(latestNumber);\n        emit betPlaced(_queryId, playerAddress, betAmount, amountToWin, betOn, latestNumber, flipResult);\n    }\n\n    function getBalance() public view returns(uint){\n        return address(this).balance;\n    }\n\n    function addPlayerBalance(address playerAddress, uint amount) private {\n        uint previousBalance = playerBalances[playerAddress];\n        playerBalances[playerAddress] = SafeMath.add(previousBalance, amount);\n    }\n\n    function getPlayerBalance(address playerAddress) public view returns(uint) {\n        uint playerBalance = playerBalances[playerAddress];\n        return  playerBalance;\n    }\n\n    function payoutPlayer(address payable playerAddress) public payable {\n        require(msg.sender == playerAddress);\n        uint playerBalance = getPlayerBalance(playerAddress);\n        uint toTransfer = playerBalance;\n\n        playerBalances[playerAddress] = 0;\n        assert(playerBalances[playerAddress] == 0);\n\n        playerAddress.transfer(toTransfer);\n        balance = SafeMath.sub(balance, toTransfer);\n    }\n\n   function fundContract() public payable costs(1 ether) {\n      balance = SafeMath.add(balance, msg.value);\n    }\n\n   function close() public onlyOwner {\n        msg.sender.transfer(balance);\n        balance = 0;\n        assert(balance == 0);\n        selfdestruct(msg.sender);\n    }\n}\n",
  "sourcePath": "/Users/jsd/lab/ethad/CoinFlip/contracts/CoinFlip.sol",
  "compiler": {
    "name": "solc",
    "version": "0.5.12+commit.7709ece9.Emscripten.clang"
  },
  "schemaVersion": "3.1.0",
  "updatedAt": "2020-05-27T11:22:43.665Z",
  "networkType": "ethereum",
  "devdoc": {
    "methods": {
      "__callback(bytes32,string)": {
        "details": "The following `__callback` functions are just placeholders ideally     meant to be defined in child contract when proofs are used.     The function bodies simply silence compiler warnings."
      }
    }
  },
  "userdoc": {
    "methods": {}
  }
}