{
  "contractName": "CoinFlip",
  "abi": [
    {
      "inputs": [],
      "payable": false,
      "stateMutability": "nonpayable",
      "type": "constructor"
    },
    {
      "anonymous": false,
      "inputs": [
        {
          "indexed": true,
          "internalType": "bytes32",
          "name": "queryId",
          "type": "bytes32"
        },
        {
          "indexed": false,
          "internalType": "address",
          "name": "playerAddress",
          "type": "address"
        },
        {
          "indexed": false,
          "internalType": "uint256",
          "name": "betAmount",
          "type": "uint256"
        },
        {
          "indexed": false,
          "internalType": "uint256",
          "name": "amountToWin",
          "type": "uint256"
        },
        {
          "indexed": false,
          "internalType": "uint256",
          "name": "betOn",
          "type": "uint256"
        },
        {
          "indexed": false,
          "internalType": "uint256",
          "name": "latestNumber",
          "type": "uint256"
        },
        {
          "indexed": false,
          "internalType": "bool",
          "name": "flipResult",
          "type": "bool"
        }
      ],
      "name": "betPlaced",
      "type": "event"
    },
    {
      "anonymous": false,
      "inputs": [
        {
          "indexed": false,
          "internalType": "uint256",
          "name": "randomNumber",
          "type": "uint256"
        }
      ],
      "name": "generatedRandomNumber",
      "type": "event"
    },
    {
      "anonymous": false,
      "inputs": [
        {
          "indexed": false,
          "internalType": "string",
          "name": "description",
          "type": "string"
        }
      ],
      "name": "logNewProvableQuery",
      "type": "event"
    },
    {
      "anonymous": false,
      "inputs": [
        {
          "indexed": true,
          "internalType": "bytes32",
          "name": "queryId",
          "type": "bytes32"
        },
        {
          "indexed": false,
          "internalType": "address",
          "name": "playerAddress",
          "type": "address"
        }
      ],
      "name": "logQueryId",
      "type": "event"
    },
    {
      "constant": true,
      "inputs": [],
      "name": "balance",
      "outputs": [
        {
          "internalType": "uint256",
          "name": "",
          "type": "uint256"
        }
      ],
      "payable": false,
      "stateMutability": "view",
      "type": "function"
    },
    {
      "constant": true,
      "inputs": [],
      "name": "latestNumber",
      "outputs": [
        {
          "internalType": "uint256",
          "name": "",
          "type": "uint256"
        }
      ],
      "payable": false,
      "stateMutability": "view",
      "type": "function"
    },
    {
      "constant": true,
      "inputs": [],
      "name": "owner",
      "outputs": [
        {
          "internalType": "address payable",
          "name": "",
          "type": "address"
        }
      ],
      "payable": false,
      "stateMutability": "view",
      "type": "function"
    },
    {
      "constant": false,
      "inputs": [
        {
          "internalType": "uint256",
          "name": "betOn",
          "type": "uint256"
        }
      ],
      "name": "placeBet",
      "outputs": [],
      "payable": true,
      "stateMutability": "payable",
      "type": "function"
    },
    {
      "constant": false,
      "inputs": [
        {
          "internalType": "bytes32",
          "name": "_myid",
          "type": "bytes32"
        },
        {
          "internalType": "string",
          "name": "_result",
          "type": "string"
        }
      ],
      "name": "__callback",
      "outputs": [],
      "payable": false,
      "stateMutability": "nonpayable",
      "type": "function"
    },
    {
      "constant": false,
      "inputs": [
        {
          "internalType": "bytes32",
          "name": "_queryId",
          "type": "bytes32"
        },
        {
          "internalType": "string",
          "name": "_result",
          "type": "string"
        },
        {
          "internalType": "bytes",
          "name": "_proof",
          "type": "bytes"
        }
      ],
      "name": "__callback",
      "outputs": [],
      "payable": false,
      "stateMutability": "nonpayable",
      "type": "function"
    },
    {
      "constant": true,
      "inputs": [],
      "name": "getBalance",
      "outputs": [
        {
          "internalType": "uint256",
          "name": "",
          "type": "uint256"
        }
      ],
      "payable": false,
      "stateMutability": "view",
      "type": "function"
    },
    {
      "constant": true,
      "inputs": [
        {
          "internalType": "address",
          "name": "playerAddress",
          "type": "address"
        }
      ],
      "name": "getPlayerBalance",
      "outputs": [
        {
          "internalType": "uint256",
          "name": "",
          "type": "uint256"
        }
      ],
      "payable": false,
      "stateMutability": "view",
      "type": "function"
    },
    {
      "constant": false,
      "inputs": [
        {
          "internalType": "address payable",
          "name": "playerAddress",
          "type": "address"
        }
      ],
      "name": "payoutPlayer",
      "outputs": [],
      "payable": true,
      "stateMutability": "payable",
      "type": "function"
    },
    {
      "constant": false,
      "inputs": [],
      "name": "fundContract",
      "outputs": [],
      "payable": true,
      "stateMutability": "payable",
      "type": "function"
    },
    {
      "constant": false,
      "inputs": [],
      "name": "close",
      "outputs": [],
      "payable": false,
      "stateMutability": "nonpayable",
      "type": "function"
    }
  ],
  "bytecode": "0x60806040523480156200001157600080fd5b50336000806101000a81548173ffffffffffffffffffffffffffffffffffffffff021916908373ffffffffffffffffffffffffffffffffffffffff16021790555062000067603060f81b6200006d60201b60201c565b62000a91565b600073ffffffffffffffffffffffffffffffffffffffff16600360009054906101000a900473ffffffffffffffffffffffffffffffffffffffff1673ffffffffffffffffffffffffffffffffffffffff161480620000fd57506000620000fb600360009054906101000a900473ffffffffffffffffffffffffffffffffffffffff16620003d360201b60201c565b145b156200011757620001156000620003de60201b60201c565b505b600360009054906101000a900473ffffffffffffffffffffffffffffffffffffffff1673ffffffffffffffffffffffffffffffffffffffff166338cc48316040518163ffffffff1660e01b8152600401602060405180830381600087803b1580156200018257600080fd5b505af115801562000197573d6000803e3d6000fd5b505050506040513d6020811015620001ae57600080fd5b810190808051906020019092919050505073ffffffffffffffffffffffffffffffffffffffff16600260009054906101000a900473ffffffffffffffffffffffffffffffffffffffff1673ffffffffffffffffffffffffffffffffffffffff1614620002fd57600360009054906101000a900473ffffffffffffffffffffffffffffffffffffffff1673ffffffffffffffffffffffffffffffffffffffff166338cc48316040518163ffffffff1660e01b8152600401602060405180830381600087803b1580156200027f57600080fd5b505af115801562000294573d6000803e3d6000fd5b505050506040513d6020811015620002ab57600080fd5b8101908080519060200190929190505050600260006101000a81548173ffffffffffffffffffffffffffffffffffffffff021916908373ffffffffffffffffffffffffffffffffffffffff1602179055505b600260009054906101000a900473ffffffffffffffffffffffffffffffffffffffff1673ffffffffffffffffffffffffffffffffffffffff1663688dcfd7826040518263ffffffff1660e01b815260040180827effffffffffffffffffffffffffffffffffffffffffffffffffffffffffffff19167effffffffffffffffffffffffffffffffffffffffffffffffffffffffffffff19168152602001915050600060405180830381600087803b158015620003b757600080fd5b505af1158015620003cc573d6000803e3d6000fd5b5050505050565b6000813b9050919050565b6000620003f0620003f760201b60201c565b9050919050565b6000806200041f731d3b2638a7cc9f2cb3d298a3da7a90b67e5506ed620003d360201b60201c565b1115620004cb57731d3b2638a7cc9f2cb3d298a3da7a90b67e5506ed600360006101000a81548173ffffffffffffffffffffffffffffffffffffffff021916908373ffffffffffffffffffffffffffffffffffffffff160217905550620004c16040518060400160405280600b81526020017f6574685f6d61696e6e6574000000000000000000000000000000000000000000815250620009c660201b60201c565b60019050620009c3565b6000620004f273c03a2615d5efaf5f49f60b7bb6583eaec212fdf1620003d360201b60201c565b11156200059e5773c03a2615d5efaf5f49f60b7bb6583eaec212fdf1600360006101000a81548173ffffffffffffffffffffffffffffffffffffffff021916908373ffffffffffffffffffffffffffffffffffffffff160217905550620005946040518060400160405280600c81526020017f6574685f726f707374656e330000000000000000000000000000000000000000815250620009c660201b60201c565b60019050620009c3565b6000620005c573b7a07bcf2ba2f2703b24c0691b5278999c59ac7e620003d360201b60201c565b1115620006715773b7a07bcf2ba2f2703b24c0691b5278999c59ac7e600360006101000a81548173ffffffffffffffffffffffffffffffffffffffff021916908373ffffffffffffffffffffffffffffffffffffffff160217905550620006676040518060400160405280600981526020017f6574685f6b6f76616e0000000000000000000000000000000000000000000000815250620009c660201b60201c565b60019050620009c3565b60006200069873146500cfd35b22e4a392fe0adc06de1a1368ed48620003d360201b60201c565b1115620007445773146500cfd35b22e4a392fe0adc06de1a1368ed48600360006101000a81548173ffffffffffffffffffffffffffffffffffffffff021916908373ffffffffffffffffffffffffffffffffffffffff1602179055506200073a6040518060400160405280600b81526020017f6574685f72696e6b656279000000000000000000000000000000000000000000815250620009c660201b60201c565b60019050620009c3565b60006200076b73a2998efd205fb9d4b4963afb70778d6354ad3a41620003d360201b60201c565b1115620008175773a2998efd205fb9d4b4963afb70778d6354ad3a41600360006101000a81548173ffffffffffffffffffffffffffffffffffffffff021916908373ffffffffffffffffffffffffffffffffffffffff1602179055506200080d6040518060400160405280600a81526020017f6574685f676f65726c6900000000000000000000000000000000000000000000815250620009c660201b60201c565b60019050620009c3565b60006200083e736f485c8bf6fc43ea212e93bbf8ce046c7f1cb475620003d360201b60201c565b1115620008a457736f485c8bf6fc43ea212e93bbf8ce046c7f1cb475600360006101000a81548173ffffffffffffffffffffffffffffffffffffffff021916908373ffffffffffffffffffffffffffffffffffffffff16021790555060019050620009c3565b6000620008cb7320e12a1f859b3feae5fb2a0a32c18f5a65555bbf620003d360201b60201c565b111562000931577320e12a1f859b3feae5fb2a0a32c18f5a65555bbf600360006101000a81548173ffffffffffffffffffffffffffffffffffffffff021916908373ffffffffffffffffffffffffffffffffffffffff16021790555060019050620009c3565b6000620009587351efaf4c8b3c9afbd5ab9f4bbc82784ab6ef8faa620003d360201b60201c565b1115620009be577351efaf4c8b3c9afbd5ab9f4bbc82784ab6ef8faa600360006101000a81548173ffffffffffffffffffffffffffffffffffffffff021916908373ffffffffffffffffffffffffffffffffffffffff16021790555060019050620009c3565b600090505b90565b8060049080519060200190620009de929190620009e2565b5050565b828054600181600116156101000203166002900490600052602060002090601f016020900481019282601f1062000a2557805160ff191683800117855562000a56565b8280016001018555821562000a56579182015b8281111562000a5557825182559160200191906001019062000a38565b5b50905062000a65919062000a69565b5090565b62000a8e91905b8082111562000a8a57600081600090555060010162000a70565b5090565b90565b61323f8062000aa16000396000f3fe60806040526004361061009c5760003560e01c80638da5cb5b116100645780638da5cb5b1461034c578063b69ef8a8146103a3578063bd097e21146103ce578063d965096e146103d8578063dc34b0aa1461041c578063e2734c93146104475761009c565b806310fe7c48146100a157806312065fe0146100cf57806327dc297e146100fa57806338bbfa50146101cc57806343d726d614610335575b600080fd5b6100cd600480360360208110156100b757600080fd5b81019080803590602001909291905050506104ac565b005b3480156100db57600080fd5b506100e4610636565b6040518082815260200191505060405180910390f35b34801561010657600080fd5b506101ca6004803603604081101561011d57600080fd5b81019080803590602001909291908035906020019064010000000081111561014457600080fd5b82018360208201111561015657600080fd5b8035906020019184600183028401116401000000008311171561017857600080fd5b91908080601f016020809104026020016040519081016040528093929190818152602001838380828437600081840152601f19601f820116905080830192505050505050509192919290505050610655565b005b3480156101d857600080fd5b50610333600480360360608110156101ef57600080fd5b81019080803590602001909291908035906020019064010000000081111561021657600080fd5b82018360208201111561022857600080fd5b8035906020019184600183028401116401000000008311171561024a57600080fd5b91908080601f016020809104026020016040519081016040528093929190818152602001838380828437600081840152601f19601f820116905080830192505050505050509192919290803590602001906401000000008111156102ad57600080fd5b8201836020820111156102bf57600080fd5b803590602001918460018302840111640100000000831117156102e157600080fd5b91908080601f016020809104026020016040519081016040528093929190818152602001838380828437600081840152601f19601f820116905080830192505050505050509192919290505050610698565b005b34801561034157600080fd5b5061034a61091b565b005b34801561035857600080fd5b506103616109ea565b604051808273ffffffffffffffffffffffffffffffffffffffff1673ffffffffffffffffffffffffffffffffffffffff16815260200191505060405180910390f35b3480156103af57600080fd5b506103b8610a0f565b6040518082815260200191505060405180910390f35b6103d6610a15565b005b61041a600480360360208110156103ee57600080fd5b81019080803573ffffffffffffffffffffffffffffffffffffffff169060200190929190505050610a40565b005b34801561042857600080fd5b50610431610b76565b6040518082815260200191505060405180910390f35b34801561045357600080fd5b506104966004803603602081101561046a57600080fd5b81019080803573ffffffffffffffffffffffffffffffffffffffff169060200190929190505050610b7c565b6040518082815260200191505060405180910390f35b66b1a2bc2ec50000803410156104c157600080fd5b6000809050600062030d40905060006104dc83600184610bca565b905060405180606001604052803373ffffffffffffffffffffffffffffffffffffffff168152602001348152602001868152506008600083815260200190815260200160002060008201518160000160006101000a81548173ffffffffffffffffffffffffffffffffffffffff021916908373ffffffffffffffffffffffffffffffffffffffff16021790555060208201518160010155604082015181600201559050507f94f2559b5e2b297de3db1587daf2352e872ada3dad01dab9ee3733592fa22ed36040518080602001828103825260368152602001806131d56036913960400191505060405180910390a1807ff26e2eed1df9ebd2f4b1f2e390557c5ae61818c974089479c15b66ae7c81042033604051808273ffffffffffffffffffffffffffffffffffffffff1673ffffffffffffffffffffffffffffffffffffffff16815260200191505060405180910390a25050505050565b60003073ffffffffffffffffffffffffffffffffffffffff1631905090565b610694828260006040519080825280601f01601f19166020018201604052801561068e5781602001600182028038833980820191505090505b50610698565b5050565b6106a0611165565b73ffffffffffffffffffffffffffffffffffffffff163373ffffffffffffffffffffffffffffffffffffffff16146106d757600080fd5b6002826040516020018082805190602001908083835b6020831061071057805182526020820191506020810190506020830392506106ed565b6001836020036101000a0380198251168184511680821785525050505050509050019150506040516020818303038152906040528051906020012060001c8161075557fe5b0660078190555060006008600085815260200190815260200160002060010154905060006107c0826107bb6040518060400160405280600681526020017f52414e444f4d0000000000000000000000000000000000000000000000000000815250611485565b611819565b905060006107cf826002611863565b905060006008600088815260200190815260200160002060000160009054906101000a900473ffffffffffffffffffffffffffffffffffffffff16905060008090506000600860008a8152602001908152602001600020600201549050806007541415610845576001915061084483856118e9565b5b7fc13d60fe9dffdb6908d2d446cd18134373a51db0738ee04f296eeb9128121cbc6007546040518082815260200191505060405180910390a1887f2db6ca9d09302f16ac4692c94eff1534615edbf071c6403539dc35ac9da4c7678488878560075488604051808773ffffffffffffffffffffffffffffffffffffffff1673ffffffffffffffffffffffffffffffffffffffff16815260200186815260200185815260200184815260200183815260200182151515158152602001965050505050505060405180910390a2505050505050505050565b6000809054906101000a900473ffffffffffffffffffffffffffffffffffffffff1673ffffffffffffffffffffffffffffffffffffffff163373ffffffffffffffffffffffffffffffffffffffff161461097457600080fd5b3373ffffffffffffffffffffffffffffffffffffffff166108fc6001549081150290604051600060405180830381858888f193505050501580156109bc573d6000803e3d6000fd5b5060006001819055506000600154146109d157fe5b3373ffffffffffffffffffffffffffffffffffffffff16ff5b6000809054906101000a900473ffffffffffffffffffffffffffffffffffffffff1681565b60015481565b670de0b6b3a764000080341015610a2b57600080fd5b610a376001543461197f565b60018190555050565b8073ffffffffffffffffffffffffffffffffffffffff163373ffffffffffffffffffffffffffffffffffffffff1614610a7857600080fd5b6000610a8382610b7c565b905060008190506000600960008573ffffffffffffffffffffffffffffffffffffffff1673ffffffffffffffffffffffffffffffffffffffff168152602001908152602001600020819055506000600960008573ffffffffffffffffffffffffffffffffffffffff1673ffffffffffffffffffffffffffffffffffffffff1681526020019081526020016000205414610b1857fe5b8273ffffffffffffffffffffffffffffffffffffffff166108fc829081150290604051600060405180830381858888f19350505050158015610b5e573d6000803e3d6000fd5b50610b6b60015482611819565b600181905550505050565b60075481565b600080600960008473ffffffffffffffffffffffffffffffffffffffff1673ffffffffffffffffffffffffffffffffffffffff16815260200190815260200160002054905080915050919050565b60008083118015610bdc575060208311155b610be557600080fd5b600a84029350606060016040519080825280601f01601f191660200182016040528015610c215781602001600182028038833980820191505090505b5090508360f81b81600081518110610c3557fe5b60200101907effffffffffffffffffffffffffffffffffffffffffffffffffffffffffffff1916908160001a905350606060206040519080825280601f01601f191660200182016040528015610c9a5781602001600182028038833980820191505090505b509050606060206040519080825280601f01601f191660200182016040528015610cd35781602001600182028038833980820191505090505b5090506000610ce0611a07565b905060208352424118600143034018602084015260208252806020830152606060206040519080825280601f01601f191660200182016040528015610d345781602001600182028038833980820191505090505b509050886020820152606060086040519080825280601f01601f191660200182016040528015610d735781602001600182028038833980820191505090505b509050610d868260186008846000611d27565b50610d8f6130cd565b60405180608001604052808781526020018881526020018681526020018481525090506000610df46040518060400160405280600681526020017f72616e646f6d0000000000000000000000000000000000000000000000000000815250838c611d86565b9050606060086040519080825280601f01601f191660200182016040528015610e2c5781602001600182028038833980820191505090505b50905060208401517f0100000000000000000000000000000000000000000000000000000000000000810460278301537e01000000000000000000000000000000000000000000000000000000000000810460268301537d010000000000000000000000000000000000000000000000000000000000810460258301537c0100000000000000000000000000000000000000000000000000000000810460248301537b01000000000000000000000000000000000000000000000000000000810460238301537a010000000000000000000000000000000000000000000000000000810460228301537901000000000000000000000000000000000000000000000000008104602183015378010000000000000000000000000000000000000000000000008104602083015350611152828285600160048110610f6b57fe5b6020020151600287600060048110610f7f57fe5b60200201516040518082805190602001908083835b60208310610fb75780518252602082019150602081019050602083039250610f94565b6001836020036101000a038019825116818451168082178552505050505050905001915050602060405180830381855afa158015610ff9573d6000803e3d6000fd5b5050506040513d602081101561100e57600080fd5b81019080805190602001909291905050508760026004811061102c57fe5b60200201516040516020018085805190602001908083835b602083106110675780518252602082019150602081019050602083039250611044565b6001836020036101000a03801982511681845116808217855250505050505090500184805190602001908083835b602083106110b85780518252602082019150602081019050602083039250611095565b6001836020036101000a03801982511681845116808217855250505050505090500183815260200182805190602001908083835b6020831061110f57805182526020820191506020810190506020830392506110ec565b6001836020036101000a038019825116818451168082178552505050505050905001945050505050604051602081830303815290604052805190602001206120f5565b8199505050505050505050509392505050565b60008073ffffffffffffffffffffffffffffffffffffffff16600360009054906101000a900473ffffffffffffffffffffffffffffffffffffffff1673ffffffffffffffffffffffffffffffffffffffff1614806111ed575060006111eb600360009054906101000a900473ffffffffffffffffffffffffffffffffffffffff16612111565b145b156111fe576111fc600061211c565b505b600360009054906101000a900473ffffffffffffffffffffffffffffffffffffffff1673ffffffffffffffffffffffffffffffffffffffff166338cc48316040518163ffffffff1660e01b8152600401602060405180830381600087803b15801561126857600080fd5b505af115801561127c573d6000803e3d6000fd5b505050506040513d602081101561129257600080fd5b810190808051906020019092919050505073ffffffffffffffffffffffffffffffffffffffff16600260009054906101000a900473ffffffffffffffffffffffffffffffffffffffff1673ffffffffffffffffffffffffffffffffffffffff16146113dd57600360009054906101000a900473ffffffffffffffffffffffffffffffffffffffff1673ffffffffffffffffffffffffffffffffffffffff166338cc48316040518163ffffffff1660e01b8152600401602060405180830381600087803b15801561136157600080fd5b505af1158015611375573d6000803e3d6000fd5b505050506040513d602081101561138b57600080fd5b8101908080519060200190929190505050600260006101000a81548173ffffffffffffffffffffffffffffffffffffffff021916908373ffffffffffffffffffffffffffffffffffffffff1602179055505b600260009054906101000a900473ffffffffffffffffffffffffffffffffffffffff1673ffffffffffffffffffffffffffffffffffffffff1663c281d19e6040518163ffffffff1660e01b815260040160206040518083038186803b15801561144557600080fd5b505afa158015611459573d6000803e3d6000fd5b505050506040513d602081101561146f57600080fd5b8101908080519060200190929190505050905090565b60008073ffffffffffffffffffffffffffffffffffffffff16600360009054906101000a900473ffffffffffffffffffffffffffffffffffffffff1673ffffffffffffffffffffffffffffffffffffffff16148061150d5750600061150b600360009054906101000a900473ffffffffffffffffffffffffffffffffffffffff16612111565b145b1561151e5761151c600061211c565b505b600360009054906101000a900473ffffffffffffffffffffffffffffffffffffffff1673ffffffffffffffffffffffffffffffffffffffff166338cc48316040518163ffffffff1660e01b8152600401602060405180830381600087803b15801561158857600080fd5b505af115801561159c573d6000803e3d6000fd5b505050506040513d60208110156115b257600080fd5b810190808051906020019092919050505073ffffffffffffffffffffffffffffffffffffffff16600260009054906101000a900473ffffffffffffffffffffffffffffffffffffffff1673ffffffffffffffffffffffffffffffffffffffff16146116fd57600360009054906101000a900473ffffffffffffffffffffffffffffffffffffffff1673ffffffffffffffffffffffffffffffffffffffff166338cc48316040518163ffffffff1660e01b8152600401602060405180830381600087803b15801561168157600080fd5b505af1158015611695573d6000803e3d6000fd5b505050506040513d60208110156116ab57600080fd5b8101908080519060200190929190505050600260006101000a81548173ffffffffffffffffffffffffffffffffffffffff021916908373ffffffffffffffffffffffffffffffffffffffff1602179055505b600260009054906101000a900473ffffffffffffffffffffffffffffffffffffffff1673ffffffffffffffffffffffffffffffffffffffff1663524f3889836040518263ffffffff1660e01b81526004018080602001828103825283818151815260200191508051906020019080838360005b8381101561178b578082015181840152602081019050611770565b50505050905090810190601f1680156117b85780820380516001836020036101000a031916815260200191505b5092505050602060405180830381600087803b1580156117d757600080fd5b505af11580156117eb573d6000803e3d6000fd5b505050506040513d602081101561180157600080fd5b81019080805190602001909291905050509050919050565b600061185b83836040518060400160405280601e81526020017f536166654d6174683a207375627472616374696f6e206f766572666c6f77000081525061212d565b905092915050565b60008083141561187657600090506118e3565b600082840290508284828161188757fe5b04146118de576040517f08c379a00000000000000000000000000000000000000000000000000000000081526004018080602001828103825260218152602001806131b46021913960400191505060405180910390fd5b809150505b92915050565b6000600960008473ffffffffffffffffffffffffffffffffffffffff1673ffffffffffffffffffffffffffffffffffffffff168152602001908152602001600020549050611937818361197f565b600960008573ffffffffffffffffffffffffffffffffffffffff1673ffffffffffffffffffffffffffffffffffffffff16815260200190815260200160002081905550505050565b6000808284019050838110156119fd576040517f08c379a000000000000000000000000000000000000000000000000000000000815260040180806020018281038252601b8152602001807f536166654d6174683a206164646974696f6e206f766572666c6f77000000000081525060200191505060405180910390fd5b8091505092915050565b60008073ffffffffffffffffffffffffffffffffffffffff16600360009054906101000a900473ffffffffffffffffffffffffffffffffffffffff1673ffffffffffffffffffffffffffffffffffffffff161480611a8f57506000611a8d600360009054906101000a900473ffffffffffffffffffffffffffffffffffffffff16612111565b145b15611aa057611a9e600061211c565b505b600360009054906101000a900473ffffffffffffffffffffffffffffffffffffffff1673ffffffffffffffffffffffffffffffffffffffff166338cc48316040518163ffffffff1660e01b8152600401602060405180830381600087803b158015611b0a57600080fd5b505af1158015611b1e573d6000803e3d6000fd5b505050506040513d6020811015611b3457600080fd5b810190808051906020019092919050505073ffffffffffffffffffffffffffffffffffffffff16600260009054906101000a900473ffffffffffffffffffffffffffffffffffffffff1673ffffffffffffffffffffffffffffffffffffffff1614611c7f57600360009054906101000a900473ffffffffffffffffffffffffffffffffffffffff1673ffffffffffffffffffffffffffffffffffffffff166338cc48316040518163ffffffff1660e01b8152600401602060405180830381600087803b158015611c0357600080fd5b505af1158015611c17573d6000803e3d6000fd5b505050506040513d6020811015611c2d57600080fd5b8101908080519060200190929190505050600260006101000a81548173ffffffffffffffffffffffffffffffffffffffff021916908373ffffffffffffffffffffffffffffffffffffffff1602179055505b600260009054906101000a900473ffffffffffffffffffffffffffffffffffffffff1673ffffffffffffffffffffffffffffffffffffffff1663abaa5f3e6040518163ffffffff1660e01b815260040160206040518083038186803b158015611ce757600080fd5b505afa158015611cfb573d6000803e3d6000fd5b505050506040513d6020811015611d1157600080fd5b8101908080519060200190929190505050905090565b6060600082850190508084511015611d3e57600080fd5b600086602001905060008460200190505b868860200101821015611d775781890151808288015250602082019150602081019050611d4f565b85935050505095945050505050565b60008073ffffffffffffffffffffffffffffffffffffffff16600360009054906101000a900473ffffffffffffffffffffffffffffffffffffffff1673ffffffffffffffffffffffffffffffffffffffff161480611e0e57506000611e0c600360009054906101000a900473ffffffffffffffffffffffffffffffffffffffff16612111565b145b15611e1f57611e1d600061211c565b505b600360009054906101000a900473ffffffffffffffffffffffffffffffffffffffff1673ffffffffffffffffffffffffffffffffffffffff166338cc48316040518163ffffffff1660e01b8152600401602060405180830381600087803b158015611e8957600080fd5b505af1158015611e9d573d6000803e3d6000fd5b505050506040513d6020811015611eb357600080fd5b810190808051906020019092919050505073ffffffffffffffffffffffffffffffffffffffff16600260009054906101000a900473ffffffffffffffffffffffffffffffffffffffff1673ffffffffffffffffffffffffffffffffffffffff1614611ffe57600360009054906101000a900473ffffffffffffffffffffffffffffffffffffffff1673ffffffffffffffffffffffffffffffffffffffff166338cc48316040518163ffffffff1660e01b8152600401602060405180830381600087803b158015611f8257600080fd5b505af1158015611f96573d6000803e3d6000fd5b505050506040513d6020811015611fac57600080fd5b8101908080519060200190929190505050600260006101000a81548173ffffffffffffffffffffffffffffffffffffffff021916908373ffffffffffffffffffffffffffffffffffffffff1602179055505b6060600460405190808252806020026020018201604052801561203557816020015b60608152602001906001900390816120205790505b5090508360006004811061204557fe5b60200201518160008151811061205757fe5b60200260200101819052508360016004811061206f57fe5b60200201518160018151811061208157fe5b60200260200101819052508360026004811061209957fe5b6020020151816002815181106120ab57fe5b6020026020010181905250836003600481106120c357fe5b6020020151816003815181106120d557fe5b60200260200101819052506120eb8582856121ed565b9150509392505050565b8060056000848152602001908152602001600020819055505050565b6000813b9050919050565b6000612126612753565b9050919050565b60008383111582906121da576040517f08c379a00000000000000000000000000000000000000000000000000000000081526004018080602001828103825283818151815260200191508051906020019080838360005b8381101561219f578082015181840152602081019050612184565b50505050905090810190601f1680156121cc5780820380516001836020036101000a031916815260200191505b509250505060405180910390fd5b5060008385039050809150509392505050565b60008073ffffffffffffffffffffffffffffffffffffffff16600360009054906101000a900473ffffffffffffffffffffffffffffffffffffffff1673ffffffffffffffffffffffffffffffffffffffff16148061227557506000612273600360009054906101000a900473ffffffffffffffffffffffffffffffffffffffff16612111565b145b1561228657612284600061211c565b505b600360009054906101000a900473ffffffffffffffffffffffffffffffffffffffff1673ffffffffffffffffffffffffffffffffffffffff166338cc48316040518163ffffffff1660e01b8152600401602060405180830381600087803b1580156122f057600080fd5b505af1158015612304573d6000803e3d6000fd5b505050506040513d602081101561231a57600080fd5b810190808051906020019092919050505073ffffffffffffffffffffffffffffffffffffffff16600260009054906101000a900473ffffffffffffffffffffffffffffffffffffffff1673ffffffffffffffffffffffffffffffffffffffff161461246557600360009054906101000a900473ffffffffffffffffffffffffffffffffffffffff1673ffffffffffffffffffffffffffffffffffffffff166338cc48316040518163ffffffff1660e01b8152600401602060405180830381600087803b1580156123e957600080fd5b505af11580156123fd573d6000803e3d6000fd5b505050506040513d602081101561241357600080fd5b8101908080519060200190929190505050600260006101000a81548173ffffffffffffffffffffffffffffffffffffffff021916908373ffffffffffffffffffffffffffffffffffffffff1602179055505b6000600260009054906101000a900473ffffffffffffffffffffffffffffffffffffffff1673ffffffffffffffffffffffffffffffffffffffff16632ef3accc86856040518363ffffffff1660e01b81526004018080602001838152602001828103825284818151815260200191508051906020019080838360005b838110156124fc5780820151818401526020810190506124e1565b50505050905090810190601f1680156125295780820380516001836020036101000a031916815260200191505b509350505050602060405180830381600087803b15801561254957600080fd5b505af115801561255d573d6000803e3d6000fd5b505050506040513d602081101561257357600080fd5b81019080805190602001909291905050509050823a02670de0b6b3a7640000018111156125a6576000801b91505061274c565b60606125b185612caa565b9050600260009054906101000a900473ffffffffffffffffffffffffffffffffffffffff1673ffffffffffffffffffffffffffffffffffffffff1663c55c1cb68360008985896040518663ffffffff1660e01b8152600401808581526020018060200180602001848152602001838103835286818151815260200191508051906020019080838360005b8381101561265657808201518184015260208101905061263b565b50505050905090810190601f1680156126835780820380516001836020036101000a031916815260200191505b50838103825285818151815260200191508051906020019080838360005b838110156126bc5780820151818401526020810190506126a1565b50505050905090810190601f1680156126e95780820380516001836020036101000a031916815260200191505b5096505050505050506020604051808303818588803b15801561270b57600080fd5b505af115801561271f573d6000803e3d6000fd5b50505050506040513d602081101561273657600080fd5b8101908080519060200190929190505050925050505b9392505050565b600080612773731d3b2638a7cc9f2cb3d298a3da7a90b67e5506ed612111565b111561281557731d3b2638a7cc9f2cb3d298a3da7a90b67e5506ed600360006101000a81548173ffffffffffffffffffffffffffffffffffffffff021916908373ffffffffffffffffffffffffffffffffffffffff16021790555061280c6040518060400160405280600b81526020017f6574685f6d61696e6e6574000000000000000000000000000000000000000000815250612d2a565b60019050612ca7565b600061283473c03a2615d5efaf5f49f60b7bb6583eaec212fdf1612111565b11156128d65773c03a2615d5efaf5f49f60b7bb6583eaec212fdf1600360006101000a81548173ffffffffffffffffffffffffffffffffffffffff021916908373ffffffffffffffffffffffffffffffffffffffff1602179055506128cd6040518060400160405280600c81526020017f6574685f726f707374656e330000000000000000000000000000000000000000815250612d2a565b60019050612ca7565b60006128f573b7a07bcf2ba2f2703b24c0691b5278999c59ac7e612111565b11156129975773b7a07bcf2ba2f2703b24c0691b5278999c59ac7e600360006101000a81548173ffffffffffffffffffffffffffffffffffffffff021916908373ffffffffffffffffffffffffffffffffffffffff16021790555061298e6040518060400160405280600981526020017f6574685f6b6f76616e0000000000000000000000000000000000000000000000815250612d2a565b60019050612ca7565b60006129b673146500cfd35b22e4a392fe0adc06de1a1368ed48612111565b1115612a585773146500cfd35b22e4a392fe0adc06de1a1368ed48600360006101000a81548173ffffffffffffffffffffffffffffffffffffffff021916908373ffffffffffffffffffffffffffffffffffffffff160217905550612a4f6040518060400160405280600b81526020017f6574685f72696e6b656279000000000000000000000000000000000000000000815250612d2a565b60019050612ca7565b6000612a7773a2998efd205fb9d4b4963afb70778d6354ad3a41612111565b1115612b195773a2998efd205fb9d4b4963afb70778d6354ad3a41600360006101000a81548173ffffffffffffffffffffffffffffffffffffffff021916908373ffffffffffffffffffffffffffffffffffffffff160217905550612b106040518060400160405280600a81526020017f6574685f676f65726c6900000000000000000000000000000000000000000000815250612d2a565b60019050612ca7565b6000612b38736f485c8bf6fc43ea212e93bbf8ce046c7f1cb475612111565b1115612b9c57736f485c8bf6fc43ea212e93bbf8ce046c7f1cb475600360006101000a81548173ffffffffffffffffffffffffffffffffffffffff021916908373ffffffffffffffffffffffffffffffffffffffff16021790555060019050612ca7565b6000612bbb7320e12a1f859b3feae5fb2a0a32c18f5a65555bbf612111565b1115612c1f577320e12a1f859b3feae5fb2a0a32c18f5a65555bbf600360006101000a81548173ffffffffffffffffffffffffffffffffffffffff021916908373ffffffffffffffffffffffffffffffffffffffff16021790555060019050612ca7565b6000612c3e7351efaf4c8b3c9afbd5ab9f4bbc82784ab6ef8faa612111565b1115612ca2577351efaf4c8b3c9afbd5ab9f4bbc82784ab6ef8faa600360006101000a81548173ffffffffffffffffffffffffffffffffffffffff021916908373ffffffffffffffffffffffffffffffffffffffff16021790555060019050612ca7565b600090505b90565b6060612cb4612d44565b612cbc6130f4565b612cc881610400612d50565b612cd181612d9a565b60008090505b8351811015612d1357612d06848281518110612cef57fe5b602002602001015183612da890919063ffffffff16565b8080600101915050612cd7565b50612d1d81612dcd565b8060000151915050919050565b8060049080519060200190612d4092919061310e565b5050565b60405180590338823950565b6000819050600060208281612d6157fe5b0614612d7a5760208181612d7157fe5b06602003810190505b808360200181815250506040518084526000815281810160405250505050565b612da5816004612ddb565b50565b612db58260028351612dfc565b612dc88183612f3c90919063ffffffff16565b505050565b612dd8816007612ddb565b50565b612df8601f60058360ff16901b1783612fe790919063ffffffff16565b5050565b60178111612e2857612e238160058460ff16901b60ff161784612fe790919063ffffffff16565b612f37565b60ff8111612e6957612e4d601860058460ff16901b1784612fe790919063ffffffff16565b612e63816001856130279092919063ffffffff16565b50612f36565b61ffff8111612eab57612e8f601960058460ff16901b1784612fe790919063ffffffff16565b612ea5816002856130279092919063ffffffff16565b50612f35565b63ffffffff8111612eef57612ed3601a60058460ff16901b1784612fe790919063ffffffff16565b612ee9816004856130279092919063ffffffff16565b50612f34565b67ffffffffffffffff8111612f3357612f1b601b60058460ff16901b1784612fe790919063ffffffff16565b612f31816008856130279092919063ffffffff16565b505b5b5b5b5b505050565b612f446130f4565b82602001518360000151518351011115612f7457612f73836002612f6d8660200151865161308e565b026130aa565b5b60008060008451905085518051602081830101945086518101825260208701935050505b60208110612fbb5781518352602083019250602082019150602081039050612f98565b60006001826020036101000a039050801983511681855116818117865250508694505050505092915050565b8160200151600183600001515101111561300d5761300c8260028460200151026130aa565b5b815180516020818301018381536001820183525050505050565b61302f6130f4565b83602001518460000151518301111561305d5761305c84600261305687602001518661308e565b026130aa565b5b60006001836101000a0390508451805184818301018684198251161781528582018352505050849150509392505050565b6000818311156130a0578290506130a4565b8190505b92915050565b6060826000015190506130bd8383612d50565b6130c78382612f3c565b50505050565b60405180608001604052806004905b60608152602001906001900390816130dc5790505090565b604051806040016040528060608152602001600081525090565b828054600181600116156101000203166002900490600052602060002090601f016020900481019282601f1061314f57805160ff191683800117855561317d565b8280016001018555821561317d579182015b8281111561317c578251825591602001919060010190613161565b5b50905061318a919061318e565b5090565b6131b091905b808211156131ac576000816000905550600101613194565b5090565b9056fe536166654d6174683a206d756c7469706c69636174696f6e206f766572666c6f7750726f7661626c65207175657279207761732073656e742c207374616e64696e6720627920666f722074686520616e737765722e2e2ea265627a7a72315820b52da04eb603e2d8927032a27e97738122b2a3e45a94c09304cd7b41c5b66d2a64736f6c634300050c0032",
  "source": "pragma solidity 0.5.12;\nimport \"./Ownable.sol\";\nimport \"./SafeMath.sol\";\nimport \"./provableAPI.sol\";\n\ncontract CoinFlip is Ownable, usingProvable {\n\n    using SafeMath for uint256;\n\n    uint256 constant NUM_RANDOM_BYTES_REQUESTED = 1;\n    uint256 public latestNumber;\n\n    struct Bet {\n      address payable playerAddress;\n      uint betAmount;\n      uint betOn;\n    }\n\n    event betPlaced(bytes32 indexed queryId, address playerAddress, uint betAmount, uint amountToWin, uint256 betOn, uint256 latestNumber, bool flipResult);\n    event logNewProvableQuery(string description);\n    event generatedRandomNumber(uint256 randomNumber);\n    event logQueryId(bytes32 indexed queryId, address playerAddress);\n\n    mapping (bytes32 => Bet) private bets;\n    mapping (address => uint ) private playerBalances;\n\n    modifier costs(uint cost){\n        require(msg.value >= cost);\n        _;\n    }\n\n    constructor () public {\n      provable_setProof(proofType_Ledger);\n    }\n\n    function placeBet(uint betOn) public payable costs(0.05 ether) {\n\n        uint256 QUERY_EXECUTION_DELAY = 0;\n        uint256 GAS_FOR_CALLBACK = 200000;\n        bytes32 queryId = provable_newRandomDSQuery(\n            QUERY_EXECUTION_DELAY,\n            NUM_RANDOM_BYTES_REQUESTED,\n            GAS_FOR_CALLBACK\n        );\n\n        bets[queryId] = Bet(msg.sender, msg.value, betOn);\n        emit logNewProvableQuery(\"Provable query was sent, standing by for the answer...\");\n        emit logQueryId(queryId, msg.sender);\n    }\n\n    function __callback( bytes32 _queryId, string memory _result,bytes memory _proof) public {\n        require(msg.sender == provable_cbAddress());\n\n        latestNumber = uint256(keccak256(abi.encodePacked(_result))) % 2;\n        uint betAmount =   bets[_queryId].betAmount;\n        uint netBetAmount =  SafeMath.sub(betAmount, provable_getPrice(\"RANDOM\"));\n        uint amountToWin = SafeMath.mul(netBetAmount, 2);\n        address payable playerAddress = bets[_queryId].playerAddress;\n        bool  flipResult = false;\n        uint256 betOn =  bets[_queryId].betOn;\n\n        if(latestNumber == betOn) {\n             flipResult = true;\n             addPlayerBalance(playerAddress, amountToWin);\n        }\n\n        emit generatedRandomNumber(latestNumber);\n        emit betPlaced(_queryId, playerAddress, betAmount, amountToWin, betOn, latestNumber, flipResult);\n    }\n\n    function getBalance() public view returns(uint){\n        return address(this).balance;\n    }\n\n    function addPlayerBalance(address playerAddress, uint amount) private {\n        uint previousBalance = playerBalances[playerAddress];\n        playerBalances[playerAddress] = SafeMath.add(previousBalance, amount);\n    }\n\n    function getPlayerBalance(address playerAddress) public view returns(uint) {\n        uint playerBalance = playerBalances[playerAddress];\n        return  playerBalance;\n    }\n\n    function payoutPlayer(address payable playerAddress) public payable {\n        require(msg.sender == playerAddress);\n        uint playerBalance = getPlayerBalance(playerAddress);\n        uint toTransfer = playerBalance;\n\n        playerBalances[playerAddress] = 0;\n        assert(playerBalances[playerAddress] == 0);\n\n        playerAddress.transfer(toTransfer);\n        balance = SafeMath.sub(balance, toTransfer);\n    }\n\n   function fundContract() public payable costs(1 ether) {\n      balance = SafeMath.add(balance, msg.value);\n    }\n\n   function close() public onlyOwner {\n        msg.sender.transfer(balance);\n        balance = 0;\n        assert(balance == 0);\n        selfdestruct(msg.sender);\n    }\n}\n",
  "sourcePath": "/Users/jsd/lab/ethad/CoinFlip/contracts/CoinFlip.sol",
  "compiler": {
    "name": "solc",
    "version": "0.5.12+commit.7709ece9.Emscripten.clang"
  },
  "schemaVersion": "3.0.23",
  "updatedAt": "2020-05-25T14:49:27.894Z",
  "networkType": "ethereum",
  "devdoc": {
    "methods": {
      "__callback(bytes32,string)": {
        "details": "The following `__callback` functions are just placeholders ideally     meant to be defined in child contract when proofs are used.     The function bodies simply silence compiler warnings."
      }
    }
  },
  "userdoc": {
    "methods": {}
  }
}