{
  "contractName": "CoinFlip",
  "abi": [
    {
      "inputs": [],
      "payable": false,
      "stateMutability": "nonpayable",
      "type": "constructor"
    },
    {
      "anonymous": false,
      "inputs": [
        {
          "indexed": true,
          "internalType": "bytes32",
          "name": "queryId",
          "type": "bytes32"
        },
        {
          "indexed": false,
          "internalType": "address",
          "name": "playerAddress",
          "type": "address"
        },
        {
          "indexed": false,
          "internalType": "uint256",
          "name": "betAmount",
          "type": "uint256"
        },
        {
          "indexed": false,
          "internalType": "uint256",
          "name": "amountToWin",
          "type": "uint256"
        },
        {
          "indexed": false,
          "internalType": "uint256",
          "name": "betOn",
          "type": "uint256"
        },
        {
          "indexed": false,
          "internalType": "uint256",
          "name": "latestNumber",
          "type": "uint256"
        },
        {
          "indexed": false,
          "internalType": "bool",
          "name": "flipResult",
          "type": "bool"
        }
      ],
      "name": "betPlaced",
      "type": "event"
    },
    {
      "anonymous": false,
      "inputs": [
        {
          "indexed": false,
          "internalType": "uint256",
          "name": "randomNumber",
          "type": "uint256"
        }
      ],
      "name": "generatedRandomNumber",
      "type": "event"
    },
    {
      "anonymous": false,
      "inputs": [
        {
          "indexed": false,
          "internalType": "string",
          "name": "description",
          "type": "string"
        }
      ],
      "name": "logNewProvableQuery",
      "type": "event"
    },
    {
      "anonymous": false,
      "inputs": [
        {
          "indexed": true,
          "internalType": "bytes32",
          "name": "queryId",
          "type": "bytes32"
        },
        {
          "indexed": false,
          "internalType": "address",
          "name": "playerAddress",
          "type": "address"
        }
      ],
      "name": "logQueryId",
      "type": "event"
    },
    {
      "constant": true,
      "inputs": [],
      "name": "balance",
      "outputs": [
        {
          "internalType": "uint256",
          "name": "",
          "type": "uint256"
        }
      ],
      "payable": false,
      "stateMutability": "view",
      "type": "function"
    },
    {
      "constant": true,
      "inputs": [],
      "name": "latestNumber",
      "outputs": [
        {
          "internalType": "uint256",
          "name": "",
          "type": "uint256"
        }
      ],
      "payable": false,
      "stateMutability": "view",
      "type": "function"
    },
    {
      "constant": true,
      "inputs": [],
      "name": "owner",
      "outputs": [
        {
          "internalType": "address payable",
          "name": "",
          "type": "address"
        }
      ],
      "payable": false,
      "stateMutability": "view",
      "type": "function"
    },
    {
      "constant": false,
      "inputs": [
        {
          "internalType": "uint256",
          "name": "betOn",
          "type": "uint256"
        }
      ],
      "name": "placeBet",
      "outputs": [],
      "payable": true,
      "stateMutability": "payable",
      "type": "function"
    },
    {
      "constant": false,
      "inputs": [
        {
          "internalType": "bytes32",
          "name": "_myid",
          "type": "bytes32"
        },
        {
          "internalType": "string",
          "name": "_result",
          "type": "string"
        }
      ],
      "name": "__callback",
      "outputs": [],
      "payable": false,
      "stateMutability": "nonpayable",
      "type": "function"
    },
    {
      "constant": false,
      "inputs": [
        {
          "internalType": "bytes32",
          "name": "_queryId",
          "type": "bytes32"
        },
        {
          "internalType": "string",
          "name": "_result",
          "type": "string"
        },
        {
          "internalType": "bytes",
          "name": "_proof",
          "type": "bytes"
        }
      ],
      "name": "__callback",
      "outputs": [],
      "payable": false,
      "stateMutability": "nonpayable",
      "type": "function"
    },
    {
      "constant": true,
      "inputs": [],
      "name": "getBalance",
      "outputs": [
        {
          "internalType": "uint256",
          "name": "",
          "type": "uint256"
        }
      ],
      "payable": false,
      "stateMutability": "view",
      "type": "function"
    },
    {
      "constant": false,
      "inputs": [
        {
          "internalType": "address",
          "name": "playerAddress",
          "type": "address"
        },
        {
          "internalType": "uint256",
          "name": "amount",
          "type": "uint256"
        }
      ],
      "name": "addPlayerBalance",
      "outputs": [],
      "payable": false,
      "stateMutability": "nonpayable",
      "type": "function"
    },
    {
      "constant": true,
      "inputs": [
        {
          "internalType": "address",
          "name": "playerAddress",
          "type": "address"
        }
      ],
      "name": "getPlayerBalance",
      "outputs": [
        {
          "internalType": "uint256",
          "name": "",
          "type": "uint256"
        }
      ],
      "payable": false,
      "stateMutability": "view",
      "type": "function"
    },
    {
      "constant": false,
      "inputs": [
        {
          "internalType": "address payable",
          "name": "playerAddress",
          "type": "address"
        }
      ],
      "name": "payoutPlayer",
      "outputs": [],
      "payable": true,
      "stateMutability": "payable",
      "type": "function"
    },
    {
      "constant": false,
      "inputs": [],
      "name": "fundContract",
      "outputs": [],
      "payable": true,
      "stateMutability": "payable",
      "type": "function"
    },
    {
      "constant": false,
      "inputs": [],
      "name": "close",
      "outputs": [],
      "payable": false,
      "stateMutability": "nonpayable",
      "type": "function"
    }
  ],
  "bytecode": "0x60806040523480156200001157600080fd5b50336000806101000a81548173ffffffffffffffffffffffffffffffffffffffff021916908373ffffffffffffffffffffffffffffffffffffffff16021790555062000067603060f81b6200006d60201b60201c565b62000a91565b600073ffffffffffffffffffffffffffffffffffffffff16600360009054906101000a900473ffffffffffffffffffffffffffffffffffffffff1673ffffffffffffffffffffffffffffffffffffffff161480620000fd57506000620000fb600360009054906101000a900473ffffffffffffffffffffffffffffffffffffffff16620003d360201b60201c565b145b156200011757620001156000620003de60201b60201c565b505b600360009054906101000a900473ffffffffffffffffffffffffffffffffffffffff1673ffffffffffffffffffffffffffffffffffffffff166338cc48316040518163ffffffff1660e01b8152600401602060405180830381600087803b1580156200018257600080fd5b505af115801562000197573d6000803e3d6000fd5b505050506040513d6020811015620001ae57600080fd5b810190808051906020019092919050505073ffffffffffffffffffffffffffffffffffffffff16600260009054906101000a900473ffffffffffffffffffffffffffffffffffffffff1673ffffffffffffffffffffffffffffffffffffffff1614620002fd57600360009054906101000a900473ffffffffffffffffffffffffffffffffffffffff1673ffffffffffffffffffffffffffffffffffffffff166338cc48316040518163ffffffff1660e01b8152600401602060405180830381600087803b1580156200027f57600080fd5b505af115801562000294573d6000803e3d6000fd5b505050506040513d6020811015620002ab57600080fd5b8101908080519060200190929190505050600260006101000a81548173ffffffffffffffffffffffffffffffffffffffff021916908373ffffffffffffffffffffffffffffffffffffffff1602179055505b600260009054906101000a900473ffffffffffffffffffffffffffffffffffffffff1673ffffffffffffffffffffffffffffffffffffffff1663688dcfd7826040518263ffffffff1660e01b815260040180827effffffffffffffffffffffffffffffffffffffffffffffffffffffffffffff19167effffffffffffffffffffffffffffffffffffffffffffffffffffffffffffff19168152602001915050600060405180830381600087803b158015620003b757600080fd5b505af1158015620003cc573d6000803e3d6000fd5b5050505050565b6000813b9050919050565b6000620003f0620003f760201b60201c565b9050919050565b6000806200041f731d3b2638a7cc9f2cb3d298a3da7a90b67e5506ed620003d360201b60201c565b1115620004cb57731d3b2638a7cc9f2cb3d298a3da7a90b67e5506ed600360006101000a81548173ffffffffffffffffffffffffffffffffffffffff021916908373ffffffffffffffffffffffffffffffffffffffff160217905550620004c16040518060400160405280600b81526020017f6574685f6d61696e6e6574000000000000000000000000000000000000000000815250620009c660201b60201c565b60019050620009c3565b6000620004f273c03a2615d5efaf5f49f60b7bb6583eaec212fdf1620003d360201b60201c565b11156200059e5773c03a2615d5efaf5f49f60b7bb6583eaec212fdf1600360006101000a81548173ffffffffffffffffffffffffffffffffffffffff021916908373ffffffffffffffffffffffffffffffffffffffff160217905550620005946040518060400160405280600c81526020017f6574685f726f707374656e330000000000000000000000000000000000000000815250620009c660201b60201c565b60019050620009c3565b6000620005c573b7a07bcf2ba2f2703b24c0691b5278999c59ac7e620003d360201b60201c565b1115620006715773b7a07bcf2ba2f2703b24c0691b5278999c59ac7e600360006101000a81548173ffffffffffffffffffffffffffffffffffffffff021916908373ffffffffffffffffffffffffffffffffffffffff160217905550620006676040518060400160405280600981526020017f6574685f6b6f76616e0000000000000000000000000000000000000000000000815250620009c660201b60201c565b60019050620009c3565b60006200069873146500cfd35b22e4a392fe0adc06de1a1368ed48620003d360201b60201c565b1115620007445773146500cfd35b22e4a392fe0adc06de1a1368ed48600360006101000a81548173ffffffffffffffffffffffffffffffffffffffff021916908373ffffffffffffffffffffffffffffffffffffffff1602179055506200073a6040518060400160405280600b81526020017f6574685f72696e6b656279000000000000000000000000000000000000000000815250620009c660201b60201c565b60019050620009c3565b60006200076b73a2998efd205fb9d4b4963afb70778d6354ad3a41620003d360201b60201c565b1115620008175773a2998efd205fb9d4b4963afb70778d6354ad3a41600360006101000a81548173ffffffffffffffffffffffffffffffffffffffff021916908373ffffffffffffffffffffffffffffffffffffffff1602179055506200080d6040518060400160405280600a81526020017f6574685f676f65726c6900000000000000000000000000000000000000000000815250620009c660201b60201c565b60019050620009c3565b60006200083e736f485c8bf6fc43ea212e93bbf8ce046c7f1cb475620003d360201b60201c565b1115620008a457736f485c8bf6fc43ea212e93bbf8ce046c7f1cb475600360006101000a81548173ffffffffffffffffffffffffffffffffffffffff021916908373ffffffffffffffffffffffffffffffffffffffff16021790555060019050620009c3565b6000620008cb7320e12a1f859b3feae5fb2a0a32c18f5a65555bbf620003d360201b60201c565b111562000931577320e12a1f859b3feae5fb2a0a32c18f5a65555bbf600360006101000a81548173ffffffffffffffffffffffffffffffffffffffff021916908373ffffffffffffffffffffffffffffffffffffffff16021790555060019050620009c3565b6000620009587351efaf4c8b3c9afbd5ab9f4bbc82784ab6ef8faa620003d360201b60201c565b1115620009be577351efaf4c8b3c9afbd5ab9f4bbc82784ab6ef8faa600360006101000a81548173ffffffffffffffffffffffffffffffffffffffff021916908373ffffffffffffffffffffffffffffffffffffffff16021790555060019050620009c3565b600090505b90565b8060049080519060200190620009de929190620009e2565b5050565b828054600181600116156101000203166002900490600052602060002090601f016020900481019282601f1062000a2557805160ff191683800117855562000a56565b8280016001018555821562000a56579182015b8281111562000a5557825182559160200191906001019062000a38565b5b50905062000a65919062000a69565b5090565b62000a8e91905b8082111562000a8a57600081600090555060010162000a70565b5090565b90565b612dc08062000aa16000396000f3fe6080604052600436106100a75760003560e01c80638da5cb5b116100645780638da5cb5b146103b2578063b69ef8a814610409578063bd097e2114610434578063d965096e1461043e578063dc34b0aa14610482578063e2734c93146104ad576100a7565b806310fe7c48146100ac57806312065fe0146100da57806327dc297e1461010557806338bbfa50146101d757806343d726d6146103405780638ac8100214610357575b600080fd5b6100d8600480360360208110156100c257600080fd5b8101908080359060200190929190505050610512565b005b3480156100e657600080fd5b506100ef61069c565b6040518082815260200191505060405180910390f35b34801561011157600080fd5b506101d56004803603604081101561012857600080fd5b81019080803590602001909291908035906020019064010000000081111561014f57600080fd5b82018360208201111561016157600080fd5b8035906020019184600183028401116401000000008311171561018357600080fd5b91908080601f016020809104026020016040519081016040528093929190818152602001838380828437600081840152601f19601f8201169050808301925050505050505091929192905050506106bb565b005b3480156101e357600080fd5b5061033e600480360360608110156101fa57600080fd5b81019080803590602001909291908035906020019064010000000081111561022157600080fd5b82018360208201111561023357600080fd5b8035906020019184600183028401116401000000008311171561025557600080fd5b91908080601f016020809104026020016040519081016040528093929190818152602001838380828437600081840152601f19601f820116905080830192505050505050509192919290803590602001906401000000008111156102b857600080fd5b8201836020820111156102ca57600080fd5b803590602001918460018302840111640100000000831117156102ec57600080fd5b91908080601f016020809104026020016040519081016040528093929190818152602001838380828437600081840152601f19601f8201169050808301925050505050505091929192905050506106fe565b005b34801561034c57600080fd5b5061035561093e565b005b34801561036357600080fd5b506103b06004803603604081101561037a57600080fd5b81019080803573ffffffffffffffffffffffffffffffffffffffff16906020019092919080359060200190929190505050610a0d565b005b3480156103be57600080fd5b506103c7610aa3565b604051808273ffffffffffffffffffffffffffffffffffffffff1673ffffffffffffffffffffffffffffffffffffffff16815260200191505060405180910390f35b34801561041557600080fd5b5061041e610ac8565b6040518082815260200191505060405180910390f35b61043c610ace565b005b6104806004803603602081101561045457600080fd5b81019080803573ffffffffffffffffffffffffffffffffffffffff169060200190929190505050610af7565b005b34801561048e57600080fd5b50610497610c2b565b6040518082815260200191505060405180910390f35b3480156104b957600080fd5b506104fc600480360360208110156104d057600080fd5b81019080803573ffffffffffffffffffffffffffffffffffffffff169060200190929190505050610c31565b6040518082815260200191505060405180910390f35b66b1a2bc2ec500008034101561052757600080fd5b6000809050600062030d409050600061054283600184610c7f565b905060405180606001604052803373ffffffffffffffffffffffffffffffffffffffff168152602001348152602001868152506008600083815260200190815260200160002060008201518160000160006101000a81548173ffffffffffffffffffffffffffffffffffffffff021916908373ffffffffffffffffffffffffffffffffffffffff16021790555060208201518160010155604082015181600201559050507f94f2559b5e2b297de3db1587daf2352e872ada3dad01dab9ee3733592fa22ed3604051808060200182810382526036815260200180612d566036913960400191505060405180910390a1807ff26e2eed1df9ebd2f4b1f2e390557c5ae61818c974089479c15b66ae7c81042033604051808273ffffffffffffffffffffffffffffffffffffffff1673ffffffffffffffffffffffffffffffffffffffff16815260200191505060405180910390a25050505050565b60003073ffffffffffffffffffffffffffffffffffffffff1631905090565b6106fa828260006040519080825280601f01601f1916602001820160405280156106f45781602001600182028038833980820191505090505b506106fe565b5050565b61070661121a565b73ffffffffffffffffffffffffffffffffffffffff163373ffffffffffffffffffffffffffffffffffffffff161461073d57600080fd5b6002826040516020018082805190602001908083835b602083106107765780518252602082019150602081019050602083039250610753565b6001836020036101000a0380198251168184511680821785525050505050509050019150506040516020818303038152906040528051906020012060001c816107bb57fe5b0660078190555060006008600085815260200190815260200160002060010154905060006107ea82600261153a565b905060006008600087815260200190815260200160002060000160009054906101000a900473ffffffffffffffffffffffffffffffffffffffff1690506000809050600060086000898152602001908152602001600020600201549050806007541415610864576001915061085f8385610a0d565b610869565b600091505b7fc13d60fe9dffdb6908d2d446cd18134373a51db0738ee04f296eeb9128121cbc6007546040518082815260200191505060405180910390a1877f2db6ca9d09302f16ac4692c94eff1534615edbf071c6403539dc35ac9da4c7678487878560075488604051808773ffffffffffffffffffffffffffffffffffffffff1673ffffffffffffffffffffffffffffffffffffffff16815260200186815260200185815260200184815260200183815260200182151515158152602001965050505050505060405180910390a25050505050505050565b6000809054906101000a900473ffffffffffffffffffffffffffffffffffffffff1673ffffffffffffffffffffffffffffffffffffffff163373ffffffffffffffffffffffffffffffffffffffff161461099757600080fd5b3373ffffffffffffffffffffffffffffffffffffffff166108fc6001549081150290604051600060405180830381858888f193505050501580156109df573d6000803e3d6000fd5b5060006001819055506000600154146109f457fe5b3373ffffffffffffffffffffffffffffffffffffffff16ff5b6000600960008473ffffffffffffffffffffffffffffffffffffffff1673ffffffffffffffffffffffffffffffffffffffff168152602001908152602001600020549050610a5b81836115c0565b600960008573ffffffffffffffffffffffffffffffffffffffff1673ffffffffffffffffffffffffffffffffffffffff16815260200190815260200160002081905550505050565b6000809054906101000a900473ffffffffffffffffffffffffffffffffffffffff1681565b60015481565b670de0b6b3a764000080341015610ae457600080fd5b3460016000828254019250508190555050565b8073ffffffffffffffffffffffffffffffffffffffff163373ffffffffffffffffffffffffffffffffffffffff1614610b2f57600080fd5b6000610b3a82610c31565b905060008190506000600960008573ffffffffffffffffffffffffffffffffffffffff1673ffffffffffffffffffffffffffffffffffffffff168152602001908152602001600020819055506000600960008573ffffffffffffffffffffffffffffffffffffffff1673ffffffffffffffffffffffffffffffffffffffff1681526020019081526020016000205414610bcf57fe5b8273ffffffffffffffffffffffffffffffffffffffff166108fc829081150290604051600060405180830381858888f19350505050158015610c15573d6000803e3d6000fd5b5080600160008282540392505081905550505050565b60075481565b600080600960008473ffffffffffffffffffffffffffffffffffffffff1673ffffffffffffffffffffffffffffffffffffffff16815260200190815260200160002054905080915050919050565b60008083118015610c91575060208311155b610c9a57600080fd5b600a84029350606060016040519080825280601f01601f191660200182016040528015610cd65781602001600182028038833980820191505090505b5090508360f81b81600081518110610cea57fe5b60200101907effffffffffffffffffffffffffffffffffffffffffffffffffffffffffffff1916908160001a905350606060206040519080825280601f01601f191660200182016040528015610d4f5781602001600182028038833980820191505090505b509050606060206040519080825280601f01601f191660200182016040528015610d885781602001600182028038833980820191505090505b5090506000610d95611648565b905060208352424118600143034018602084015260208252806020830152606060206040519080825280601f01601f191660200182016040528015610de95781602001600182028038833980820191505090505b509050886020820152606060086040519080825280601f01601f191660200182016040528015610e285781602001600182028038833980820191505090505b509050610e3b8260186008846000611968565b50610e44612c4e565b60405180608001604052808781526020018881526020018681526020018481525090506000610ea96040518060400160405280600681526020017f72616e646f6d0000000000000000000000000000000000000000000000000000815250838c6119c7565b9050606060086040519080825280601f01601f191660200182016040528015610ee15781602001600182028038833980820191505090505b50905060208401517f0100000000000000000000000000000000000000000000000000000000000000810460278301537e01000000000000000000000000000000000000000000000000000000000000810460268301537d010000000000000000000000000000000000000000000000000000000000810460258301537c0100000000000000000000000000000000000000000000000000000000810460248301537b01000000000000000000000000000000000000000000000000000000810460238301537a01000000000000000000000000000000000000000000000000000081046022830153790100000000000000000000000000000000000000000000000000810460218301537801000000000000000000000000000000000000000000000000810460208301535061120782828560016004811061102057fe5b602002015160028760006004811061103457fe5b60200201516040518082805190602001908083835b6020831061106c5780518252602082019150602081019050602083039250611049565b6001836020036101000a038019825116818451168082178552505050505050905001915050602060405180830381855afa1580156110ae573d6000803e3d6000fd5b5050506040513d60208110156110c357600080fd5b8101908080519060200190929190505050876002600481106110e157fe5b60200201516040516020018085805190602001908083835b6020831061111c57805182526020820191506020810190506020830392506110f9565b6001836020036101000a03801982511681845116808217855250505050505090500184805190602001908083835b6020831061116d578051825260208201915060208101905060208303925061114a565b6001836020036101000a03801982511681845116808217855250505050505090500183815260200182805190602001908083835b602083106111c457805182526020820191506020810190506020830392506111a1565b6001836020036101000a03801982511681845116808217855250505050505090500194505050505060405160208183030381529060405280519060200120611d36565b8199505050505050505050509392505050565b60008073ffffffffffffffffffffffffffffffffffffffff16600360009054906101000a900473ffffffffffffffffffffffffffffffffffffffff1673ffffffffffffffffffffffffffffffffffffffff1614806112a2575060006112a0600360009054906101000a900473ffffffffffffffffffffffffffffffffffffffff16611d52565b145b156112b3576112b16000611d5d565b505b600360009054906101000a900473ffffffffffffffffffffffffffffffffffffffff1673ffffffffffffffffffffffffffffffffffffffff166338cc48316040518163ffffffff1660e01b8152600401602060405180830381600087803b15801561131d57600080fd5b505af1158015611331573d6000803e3d6000fd5b505050506040513d602081101561134757600080fd5b810190808051906020019092919050505073ffffffffffffffffffffffffffffffffffffffff16600260009054906101000a900473ffffffffffffffffffffffffffffffffffffffff1673ffffffffffffffffffffffffffffffffffffffff161461149257600360009054906101000a900473ffffffffffffffffffffffffffffffffffffffff1673ffffffffffffffffffffffffffffffffffffffff166338cc48316040518163ffffffff1660e01b8152600401602060405180830381600087803b15801561141657600080fd5b505af115801561142a573d6000803e3d6000fd5b505050506040513d602081101561144057600080fd5b8101908080519060200190929190505050600260006101000a81548173ffffffffffffffffffffffffffffffffffffffff021916908373ffffffffffffffffffffffffffffffffffffffff1602179055505b600260009054906101000a900473ffffffffffffffffffffffffffffffffffffffff1673ffffffffffffffffffffffffffffffffffffffff1663c281d19e6040518163ffffffff1660e01b815260040160206040518083038186803b1580156114fa57600080fd5b505afa15801561150e573d6000803e3d6000fd5b505050506040513d602081101561152457600080fd5b8101908080519060200190929190505050905090565b60008083141561154d57600090506115ba565b600082840290508284828161155e57fe5b04146115b5576040517f08c379a0000000000000000000000000000000000000000000000000000000008152600401808060200182810382526021815260200180612d356021913960400191505060405180910390fd5b809150505b92915050565b60008082840190508381101561163e576040517f08c379a000000000000000000000000000000000000000000000000000000000815260040180806020018281038252601b8152602001807f536166654d6174683a206164646974696f6e206f766572666c6f77000000000081525060200191505060405180910390fd5b8091505092915050565b60008073ffffffffffffffffffffffffffffffffffffffff16600360009054906101000a900473ffffffffffffffffffffffffffffffffffffffff1673ffffffffffffffffffffffffffffffffffffffff1614806116d0575060006116ce600360009054906101000a900473ffffffffffffffffffffffffffffffffffffffff16611d52565b145b156116e1576116df6000611d5d565b505b600360009054906101000a900473ffffffffffffffffffffffffffffffffffffffff1673ffffffffffffffffffffffffffffffffffffffff166338cc48316040518163ffffffff1660e01b8152600401602060405180830381600087803b15801561174b57600080fd5b505af115801561175f573d6000803e3d6000fd5b505050506040513d602081101561177557600080fd5b810190808051906020019092919050505073ffffffffffffffffffffffffffffffffffffffff16600260009054906101000a900473ffffffffffffffffffffffffffffffffffffffff1673ffffffffffffffffffffffffffffffffffffffff16146118c057600360009054906101000a900473ffffffffffffffffffffffffffffffffffffffff1673ffffffffffffffffffffffffffffffffffffffff166338cc48316040518163ffffffff1660e01b8152600401602060405180830381600087803b15801561184457600080fd5b505af1158015611858573d6000803e3d6000fd5b505050506040513d602081101561186e57600080fd5b8101908080519060200190929190505050600260006101000a81548173ffffffffffffffffffffffffffffffffffffffff021916908373ffffffffffffffffffffffffffffffffffffffff1602179055505b600260009054906101000a900473ffffffffffffffffffffffffffffffffffffffff1673ffffffffffffffffffffffffffffffffffffffff1663abaa5f3e6040518163ffffffff1660e01b815260040160206040518083038186803b15801561192857600080fd5b505afa15801561193c573d6000803e3d6000fd5b505050506040513d602081101561195257600080fd5b8101908080519060200190929190505050905090565b606060008285019050808451101561197f57600080fd5b600086602001905060008460200190505b8688602001018210156119b85781890151808288015250602082019150602081019050611990565b85935050505095945050505050565b60008073ffffffffffffffffffffffffffffffffffffffff16600360009054906101000a900473ffffffffffffffffffffffffffffffffffffffff1673ffffffffffffffffffffffffffffffffffffffff161480611a4f57506000611a4d600360009054906101000a900473ffffffffffffffffffffffffffffffffffffffff16611d52565b145b15611a6057611a5e6000611d5d565b505b600360009054906101000a900473ffffffffffffffffffffffffffffffffffffffff1673ffffffffffffffffffffffffffffffffffffffff166338cc48316040518163ffffffff1660e01b8152600401602060405180830381600087803b158015611aca57600080fd5b505af1158015611ade573d6000803e3d6000fd5b505050506040513d6020811015611af457600080fd5b810190808051906020019092919050505073ffffffffffffffffffffffffffffffffffffffff16600260009054906101000a900473ffffffffffffffffffffffffffffffffffffffff1673ffffffffffffffffffffffffffffffffffffffff1614611c3f57600360009054906101000a900473ffffffffffffffffffffffffffffffffffffffff1673ffffffffffffffffffffffffffffffffffffffff166338cc48316040518163ffffffff1660e01b8152600401602060405180830381600087803b158015611bc357600080fd5b505af1158015611bd7573d6000803e3d6000fd5b505050506040513d6020811015611bed57600080fd5b8101908080519060200190929190505050600260006101000a81548173ffffffffffffffffffffffffffffffffffffffff021916908373ffffffffffffffffffffffffffffffffffffffff1602179055505b60606004604051908082528060200260200182016040528015611c7657816020015b6060815260200190600190039081611c615790505b50905083600060048110611c8657fe5b602002015181600081518110611c9857fe5b602002602001018190525083600160048110611cb057fe5b602002015181600181518110611cc257fe5b602002602001018190525083600260048110611cda57fe5b602002015181600281518110611cec57fe5b602002602001018190525083600360048110611d0457fe5b602002015181600381518110611d1657fe5b6020026020010181905250611d2c858285611d6e565b9150509392505050565b8060056000848152602001908152602001600020819055505050565b6000813b9050919050565b6000611d676122d4565b9050919050565b60008073ffffffffffffffffffffffffffffffffffffffff16600360009054906101000a900473ffffffffffffffffffffffffffffffffffffffff1673ffffffffffffffffffffffffffffffffffffffff161480611df657506000611df4600360009054906101000a900473ffffffffffffffffffffffffffffffffffffffff16611d52565b145b15611e0757611e056000611d5d565b505b600360009054906101000a900473ffffffffffffffffffffffffffffffffffffffff1673ffffffffffffffffffffffffffffffffffffffff166338cc48316040518163ffffffff1660e01b8152600401602060405180830381600087803b158015611e7157600080fd5b505af1158015611e85573d6000803e3d6000fd5b505050506040513d6020811015611e9b57600080fd5b810190808051906020019092919050505073ffffffffffffffffffffffffffffffffffffffff16600260009054906101000a900473ffffffffffffffffffffffffffffffffffffffff1673ffffffffffffffffffffffffffffffffffffffff1614611fe657600360009054906101000a900473ffffffffffffffffffffffffffffffffffffffff1673ffffffffffffffffffffffffffffffffffffffff166338cc48316040518163ffffffff1660e01b8152600401602060405180830381600087803b158015611f6a57600080fd5b505af1158015611f7e573d6000803e3d6000fd5b505050506040513d6020811015611f9457600080fd5b8101908080519060200190929190505050600260006101000a81548173ffffffffffffffffffffffffffffffffffffffff021916908373ffffffffffffffffffffffffffffffffffffffff1602179055505b6000600260009054906101000a900473ffffffffffffffffffffffffffffffffffffffff1673ffffffffffffffffffffffffffffffffffffffff16632ef3accc86856040518363ffffffff1660e01b81526004018080602001838152602001828103825284818151815260200191508051906020019080838360005b8381101561207d578082015181840152602081019050612062565b50505050905090810190601f1680156120aa5780820380516001836020036101000a031916815260200191505b509350505050602060405180830381600087803b1580156120ca57600080fd5b505af11580156120de573d6000803e3d6000fd5b505050506040513d60208110156120f457600080fd5b81019080805190602001909291905050509050823a02670de0b6b3a764000001811115612127576000801b9150506122cd565b60606121328561282b565b9050600260009054906101000a900473ffffffffffffffffffffffffffffffffffffffff1673ffffffffffffffffffffffffffffffffffffffff1663c55c1cb68360008985896040518663ffffffff1660e01b8152600401808581526020018060200180602001848152602001838103835286818151815260200191508051906020019080838360005b838110156121d75780820151818401526020810190506121bc565b50505050905090810190601f1680156122045780820380516001836020036101000a031916815260200191505b50838103825285818151815260200191508051906020019080838360005b8381101561223d578082015181840152602081019050612222565b50505050905090810190601f16801561226a5780820380516001836020036101000a031916815260200191505b5096505050505050506020604051808303818588803b15801561228c57600080fd5b505af11580156122a0573d6000803e3d6000fd5b50505050506040513d60208110156122b757600080fd5b8101908080519060200190929190505050925050505b9392505050565b6000806122f4731d3b2638a7cc9f2cb3d298a3da7a90b67e5506ed611d52565b111561239657731d3b2638a7cc9f2cb3d298a3da7a90b67e5506ed600360006101000a81548173ffffffffffffffffffffffffffffffffffffffff021916908373ffffffffffffffffffffffffffffffffffffffff16021790555061238d6040518060400160405280600b81526020017f6574685f6d61696e6e65740000000000000000000000000000000000000000008152506128ab565b60019050612828565b60006123b573c03a2615d5efaf5f49f60b7bb6583eaec212fdf1611d52565b11156124575773c03a2615d5efaf5f49f60b7bb6583eaec212fdf1600360006101000a81548173ffffffffffffffffffffffffffffffffffffffff021916908373ffffffffffffffffffffffffffffffffffffffff16021790555061244e6040518060400160405280600c81526020017f6574685f726f707374656e3300000000000000000000000000000000000000008152506128ab565b60019050612828565b600061247673b7a07bcf2ba2f2703b24c0691b5278999c59ac7e611d52565b11156125185773b7a07bcf2ba2f2703b24c0691b5278999c59ac7e600360006101000a81548173ffffffffffffffffffffffffffffffffffffffff021916908373ffffffffffffffffffffffffffffffffffffffff16021790555061250f6040518060400160405280600981526020017f6574685f6b6f76616e00000000000000000000000000000000000000000000008152506128ab565b60019050612828565b600061253773146500cfd35b22e4a392fe0adc06de1a1368ed48611d52565b11156125d95773146500cfd35b22e4a392fe0adc06de1a1368ed48600360006101000a81548173ffffffffffffffffffffffffffffffffffffffff021916908373ffffffffffffffffffffffffffffffffffffffff1602179055506125d06040518060400160405280600b81526020017f6574685f72696e6b6562790000000000000000000000000000000000000000008152506128ab565b60019050612828565b60006125f873a2998efd205fb9d4b4963afb70778d6354ad3a41611d52565b111561269a5773a2998efd205fb9d4b4963afb70778d6354ad3a41600360006101000a81548173ffffffffffffffffffffffffffffffffffffffff021916908373ffffffffffffffffffffffffffffffffffffffff1602179055506126916040518060400160405280600a81526020017f6574685f676f65726c69000000000000000000000000000000000000000000008152506128ab565b60019050612828565b60006126b9736f485c8bf6fc43ea212e93bbf8ce046c7f1cb475611d52565b111561271d57736f485c8bf6fc43ea212e93bbf8ce046c7f1cb475600360006101000a81548173ffffffffffffffffffffffffffffffffffffffff021916908373ffffffffffffffffffffffffffffffffffffffff16021790555060019050612828565b600061273c7320e12a1f859b3feae5fb2a0a32c18f5a65555bbf611d52565b11156127a0577320e12a1f859b3feae5fb2a0a32c18f5a65555bbf600360006101000a81548173ffffffffffffffffffffffffffffffffffffffff021916908373ffffffffffffffffffffffffffffffffffffffff16021790555060019050612828565b60006127bf7351efaf4c8b3c9afbd5ab9f4bbc82784ab6ef8faa611d52565b1115612823577351efaf4c8b3c9afbd5ab9f4bbc82784ab6ef8faa600360006101000a81548173ffffffffffffffffffffffffffffffffffffffff021916908373ffffffffffffffffffffffffffffffffffffffff16021790555060019050612828565b600090505b90565b60606128356128c5565b61283d612c75565b612849816104006128d1565b6128528161291b565b60008090505b83518110156128945761288784828151811061287057fe5b60200260200101518361292990919063ffffffff16565b8080600101915050612858565b5061289e8161294e565b8060000151915050919050565b80600490805190602001906128c1929190612c8f565b5050565b60405180590338823950565b60008190506000602082816128e257fe5b06146128fb57602081816128f257fe5b06602003810190505b808360200181815250506040518084526000815281810160405250505050565b61292681600461295c565b50565b612936826002835161297d565b6129498183612abd90919063ffffffff16565b505050565b61295981600761295c565b50565b612979601f60058360ff16901b1783612b6890919063ffffffff16565b5050565b601781116129a9576129a48160058460ff16901b60ff161784612b6890919063ffffffff16565b612ab8565b60ff81116129ea576129ce601860058460ff16901b1784612b6890919063ffffffff16565b6129e481600185612ba89092919063ffffffff16565b50612ab7565b61ffff8111612a2c57612a10601960058460ff16901b1784612b6890919063ffffffff16565b612a2681600285612ba89092919063ffffffff16565b50612ab6565b63ffffffff8111612a7057612a54601a60058460ff16901b1784612b6890919063ffffffff16565b612a6a81600485612ba89092919063ffffffff16565b50612ab5565b67ffffffffffffffff8111612ab457612a9c601b60058460ff16901b1784612b6890919063ffffffff16565b612ab281600885612ba89092919063ffffffff16565b505b5b5b5b5b505050565b612ac5612c75565b82602001518360000151518351011115612af557612af4836002612aee86602001518651612c0f565b02612c2b565b5b60008060008451905085518051602081830101945086518101825260208701935050505b60208110612b3c5781518352602083019250602082019150602081039050612b19565b60006001826020036101000a039050801983511681855116818117865250508694505050505092915050565b81602001516001836000015151011115612b8e57612b8d826002846020015102612c2b565b5b815180516020818301018381536001820183525050505050565b612bb0612c75565b836020015184600001515183011115612bde57612bdd846002612bd7876020015186612c0f565b02612c2b565b5b60006001836101000a0390508451805184818301018684198251161781528582018352505050849150509392505050565b600081831115612c2157829050612c25565b8190505b92915050565b606082600001519050612c3e83836128d1565b612c488382612abd565b50505050565b60405180608001604052806004905b6060815260200190600190039081612c5d5790505090565b604051806040016040528060608152602001600081525090565b828054600181600116156101000203166002900490600052602060002090601f016020900481019282601f10612cd057805160ff1916838001178555612cfe565b82800160010185558215612cfe579182015b82811115612cfd578251825591602001919060010190612ce2565b5b509050612d0b9190612d0f565b5090565b612d3191905b80821115612d2d576000816000905550600101612d15565b5090565b9056fe536166654d6174683a206d756c7469706c69636174696f6e206f766572666c6f7750726f7661626c65207175657279207761732073656e742c207374616e64696e6720627920666f722074686520616e737765722e2e2ea265627a7a72315820196020eca4db99f777c6063ae04e4ab7acd09793e0eb1dd04b01d03dc3d5dcfb64736f6c634300050c0032",
  "source": "pragma solidity 0.5.12;\nimport \"./Ownable.sol\";\nimport \"./SafeMath.sol\";\nimport \"./provableAPI.sol\";\n\ncontract CoinFlip is Ownable, usingProvable {\n\n    using SafeMath for uint256;\n\n    uint256 constant NUM_RANDOM_BYTES_REQUESTED = 1;\n    uint256 public latestNumber;\n\n    struct Bet {\n      address payable playerAddress;\n      uint betAmount;\n      uint256 betOn;\n    }\n\n    event betPlaced(bytes32 indexed queryId, address playerAddress, uint betAmount, uint amountToWin, uint256 betOn, uint256 latestNumber, bool flipResult);\n    event logNewProvableQuery(string description);\n    event generatedRandomNumber(uint256 randomNumber);\n    event logQueryId(bytes32 indexed queryId, address playerAddress);\n\n    mapping (bytes32 => Bet) private bets;\n    mapping (address => uint ) private playerBalances;\n\n    modifier costs(uint cost){\n        require(msg.value >= cost);\n        _;\n    }\n\n    constructor () public {\n      provable_setProof(proofType_Ledger);\n    }\n\n    function placeBet(uint256 betOn) public payable costs(0.05 ether) {\n\n        uint256 QUERY_EXECUTION_DELAY = 0;\n        uint256 GAS_FOR_CALLBACK = 200000;\n        bytes32 queryId = provable_newRandomDSQuery(\n            QUERY_EXECUTION_DELAY,\n            NUM_RANDOM_BYTES_REQUESTED,\n            GAS_FOR_CALLBACK\n        );\n\n        bets[queryId] = Bet(msg.sender, msg.value, betOn);\n        emit logNewProvableQuery(\"Provable query was sent, standing by for the answer...\");\n        emit logQueryId(queryId, msg.sender);\n    }\n\n    function __callback( bytes32 _queryId, string memory _result,bytes memory _proof) public {\n        require(msg.sender == provable_cbAddress());\n\n        latestNumber = uint256(keccak256(abi.encodePacked(_result))) % 2;\n        uint betAmount =   bets[_queryId].betAmount;\n        uint amountToWin = SafeMath.mul(betAmount, 2);\n        address payable playerAddress = bets[_queryId].playerAddress;\n        bool  flipResult = false;\n        uint256 betOn =  bets[_queryId].betOn;\n\n        if(latestNumber == betOn) {\n             flipResult = true;\n             addPlayerBalance(playerAddress, amountToWin);\n        } else {\n            flipResult = false;\n        }\n\n        emit generatedRandomNumber(latestNumber);\n        emit betPlaced(_queryId, playerAddress, betAmount, amountToWin, betOn, latestNumber, flipResult);\n    }\n\n    function getBalance() public view returns(uint){\n        return address(this).balance;\n    }\n\n    function addPlayerBalance(address playerAddress, uint amount) public {\n        uint previousBalance = playerBalances[playerAddress];\n        playerBalances[playerAddress] = SafeMath.add(previousBalance, amount);\n    }\n\n    function getPlayerBalance(address playerAddress) public view returns(uint) {\n        uint playerBalance = playerBalances[playerAddress];\n        return  playerBalance;\n    }\n\n    function payoutPlayer(address payable playerAddress) public payable {\n        require(msg.sender == playerAddress);\n        uint playerBalance = getPlayerBalance(playerAddress);\n        uint toTransfer = playerBalance;\n\n        playerBalances[playerAddress] = 0;\n        assert(playerBalances[playerAddress] == 0);\n      \n        playerAddress.transfer(toTransfer);\n        balance -= toTransfer;\n    }\n\n   function fundContract() public payable costs(1 ether) {\n      balance += msg.value;\n    }\n\n   function close() public onlyOwner {\n        msg.sender.transfer(balance);\n        balance = 0;\n        assert(balance == 0);\n        selfdestruct(msg.sender);\n    }\n}\n",
  "sourcePath": "/Users/jsd/lab/ethad/CoinFlip/contracts/CoinFlip.sol",
  "compiler": {
    "name": "solc",
    "version": "0.5.12+commit.7709ece9.Emscripten.clang"
  },
  "schemaVersion": "3.0.23",
  "updatedAt": "2020-05-22T18:12:03.479Z",
  "networkType": "ethereum",
  "devdoc": {
    "methods": {
      "__callback(bytes32,string)": {
        "details": "The following `__callback` functions are just placeholders ideally     meant to be defined in child contract when proofs are used.     The function bodies simply silence compiler warnings."
      }
    }
  },
  "userdoc": {
    "methods": {}
  }
}