{
  "contractName": "CoinFlip",
  "abi": [
    {
      "anonymous": false,
      "inputs": [
        {
          "indexed": true,
          "internalType": "bytes32",
          "name": "queryId",
          "type": "bytes32"
        },
        {
          "indexed": false,
          "internalType": "address",
          "name": "playerAddress",
          "type": "address"
        },
        {
          "indexed": false,
          "internalType": "uint256",
          "name": "betAmount",
          "type": "uint256"
        },
        {
          "indexed": false,
          "internalType": "uint256",
          "name": "betOn",
          "type": "uint256"
        },
        {
          "indexed": false,
          "internalType": "uint256",
          "name": "latestNumber",
          "type": "uint256"
        },
        {
          "indexed": false,
          "internalType": "bool",
          "name": "flipResult",
          "type": "bool"
        }
      ],
      "name": "betPlaced",
      "type": "event"
    },
    {
      "anonymous": false,
      "inputs": [
        {
          "indexed": false,
          "internalType": "uint256",
          "name": "randomNumber",
          "type": "uint256"
        }
      ],
      "name": "generatedRandomNumber",
      "type": "event"
    },
    {
      "anonymous": false,
      "inputs": [
        {
          "indexed": false,
          "internalType": "string",
          "name": "description",
          "type": "string"
        }
      ],
      "name": "logNewProvableQuery",
      "type": "event"
    },
    {
      "anonymous": false,
      "inputs": [
        {
          "indexed": true,
          "internalType": "bytes32",
          "name": "queryId",
          "type": "bytes32"
        },
        {
          "indexed": false,
          "internalType": "address",
          "name": "playerAddress",
          "type": "address"
        }
      ],
      "name": "logQueryId",
      "type": "event"
    },
    {
      "constant": true,
      "inputs": [],
      "name": "balance",
      "outputs": [
        {
          "internalType": "uint256",
          "name": "",
          "type": "uint256"
        }
      ],
      "payable": false,
      "stateMutability": "view",
      "type": "function"
    },
    {
      "constant": true,
      "inputs": [],
      "name": "latestNumber",
      "outputs": [
        {
          "internalType": "uint256",
          "name": "",
          "type": "uint256"
        }
      ],
      "payable": false,
      "stateMutability": "view",
      "type": "function"
    },
    {
      "constant": true,
      "inputs": [],
      "name": "owner",
      "outputs": [
        {
          "internalType": "address payable",
          "name": "",
          "type": "address"
        }
      ],
      "payable": false,
      "stateMutability": "view",
      "type": "function"
    },
    {
      "constant": false,
      "inputs": [
        {
          "internalType": "uint256",
          "name": "betOn",
          "type": "uint256"
        }
      ],
      "name": "placeBet",
      "outputs": [],
      "payable": true,
      "stateMutability": "payable",
      "type": "function"
    },
    {
      "constant": false,
      "inputs": [
        {
          "internalType": "bytes32",
          "name": "_myid",
          "type": "bytes32"
        },
        {
          "internalType": "string",
          "name": "_result",
          "type": "string"
        }
      ],
      "name": "__callback",
      "outputs": [],
      "payable": false,
      "stateMutability": "nonpayable",
      "type": "function"
    },
    {
      "constant": false,
      "inputs": [
        {
          "internalType": "bytes32",
          "name": "_queryId",
          "type": "bytes32"
        },
        {
          "internalType": "string",
          "name": "_result",
          "type": "string"
        },
        {
          "internalType": "bytes",
          "name": "_proof",
          "type": "bytes"
        }
      ],
      "name": "__callback",
      "outputs": [],
      "payable": false,
      "stateMutability": "nonpayable",
      "type": "function"
    },
    {
      "constant": true,
      "inputs": [],
      "name": "getBalance",
      "outputs": [
        {
          "internalType": "uint256",
          "name": "",
          "type": "uint256"
        }
      ],
      "payable": false,
      "stateMutability": "view",
      "type": "function"
    },
    {
      "constant": false,
      "inputs": [],
      "name": "fundContract",
      "outputs": [],
      "payable": true,
      "stateMutability": "payable",
      "type": "function"
    },
    {
      "constant": false,
      "inputs": [],
      "name": "close",
      "outputs": [],
      "payable": false,
      "stateMutability": "nonpayable",
      "type": "function"
    }
  ],
  "bytecode": "0x6080604052336000806101000a81548173ffffffffffffffffffffffffffffffffffffffff021916908373ffffffffffffffffffffffffffffffffffffffff160217905550612970806100536000396000f3fe6080604052600436106100865760003560e01c806343d726d61161005957806343d726d61461031f5780638da5cb5b14610336578063b69ef8a81461038d578063bd097e21146103b8578063dc34b0aa146103c257610086565b806310fe7c481461008b57806312065fe0146100b957806327dc297e146100e457806338bbfa50146101b6575b600080fd5b6100b7600480360360208110156100a157600080fd5b81019080803590602001909291905050506103ed565b005b3480156100c557600080fd5b506100ce610577565b6040518082815260200191505060405180910390f35b3480156100f057600080fd5b506101b46004803603604081101561010757600080fd5b81019080803590602001909291908035906020019064010000000081111561012e57600080fd5b82018360208201111561014057600080fd5b8035906020019184600183028401116401000000008311171561016257600080fd5b91908080601f016020809104026020016040519081016040528093929190818152602001838380828437600081840152601f19601f820116905080830192505050505050509192919290505050610596565b005b3480156101c257600080fd5b5061031d600480360360608110156101d957600080fd5b81019080803590602001909291908035906020019064010000000081111561020057600080fd5b82018360208201111561021257600080fd5b8035906020019184600183028401116401000000008311171561023457600080fd5b91908080601f016020809104026020016040519081016040528093929190818152602001838380828437600081840152601f19601f8201169050808301925050505050505091929192908035906020019064010000000081111561029757600080fd5b8201836020820111156102a957600080fd5b803590602001918460018302840111640100000000831117156102cb57600080fd5b91908080601f016020809104026020016040519081016040528093929190818152602001838380828437600081840152601f19601f8201169050808301925050505050505091929192905050506105d9565b005b34801561032b57600080fd5b50610334610841565b005b34801561034257600080fd5b5061034b610904565b604051808273ffffffffffffffffffffffffffffffffffffffff1673ffffffffffffffffffffffffffffffffffffffff16815260200191505060405180910390f35b34801561039957600080fd5b506103a2610929565b6040518082815260200191505060405180910390f35b6103c061092f565b005b3480156103ce57600080fd5b506103d7610958565b6040518082815260200191505060405180910390f35b66b1a2bc2ec500008034101561040257600080fd5b6000809050600062030d409050600061041d8360018461095e565b905060405180606001604052803373ffffffffffffffffffffffffffffffffffffffff168152602001348152602001868152506008600083815260200190815260200160002060008201518160000160006101000a81548173ffffffffffffffffffffffffffffffffffffffff021916908373ffffffffffffffffffffffffffffffffffffffff16021790555060208201518160010155604082015181600201559050507f94f2559b5e2b297de3db1587daf2352e872ada3dad01dab9ee3733592fa22ed36040518080602001828103825260368152602001806129066036913960400191505060405180910390a1807ff26e2eed1df9ebd2f4b1f2e390557c5ae61818c974089479c15b66ae7c81042033604051808273ffffffffffffffffffffffffffffffffffffffff1673ffffffffffffffffffffffffffffffffffffffff16815260200191505060405180910390a25050505050565b60003073ffffffffffffffffffffffffffffffffffffffff1631905090565b6105d5828260006040519080825280601f01601f1916602001820160405280156105cf5781602001600182028038833980820191505090505b506105d9565b5050565b6105e1610ef9565b73ffffffffffffffffffffffffffffffffffffffff163373ffffffffffffffffffffffffffffffffffffffff161461061857600080fd5b6002826040516020018082805190602001908083835b60208310610651578051825260208201915060208101905060208303925061062e565b6001836020036101000a0380198251168184511680821785525050505050509050019150506040516020818303038152906040528051906020012060001c8161069657fe5b0660078190555060006002600860008681526020019081526020016000206001015402905060006008600086815260200190815260200160002060000160009054906101000a900473ffffffffffffffffffffffffffffffffffffffff169050600080905060006008600088815260200190815260200160002060020154905080600754141561077057600191508273ffffffffffffffffffffffffffffffffffffffff166108fc859081150290604051600060405180830381858888f1935050505015801561076a573d6000803e3d6000fd5b50610775565b600091505b7fc13d60fe9dffdb6908d2d446cd18134373a51db0738ee04f296eeb9128121cbc6007546040518082815260200191505060405180910390a1867fa9adb04c8d413298fe5699cffd89c380060466f6bea1c70ebe5dd3c21375de2c84868460075487604051808673ffffffffffffffffffffffffffffffffffffffff1673ffffffffffffffffffffffffffffffffffffffff168152602001858152602001848152602001838152602001821515151581526020019550505050505060405180910390a250505050505050565b6000809054906101000a900473ffffffffffffffffffffffffffffffffffffffff1673ffffffffffffffffffffffffffffffffffffffff163373ffffffffffffffffffffffffffffffffffffffff161461089a57600080fd5b3373ffffffffffffffffffffffffffffffffffffffff166108fc6001549081150290604051600060405180830381858888f193505050501580156108e2573d6000803e3d6000fd5b5060006001819055503373ffffffffffffffffffffffffffffffffffffffff16ff5b6000809054906101000a900473ffffffffffffffffffffffffffffffffffffffff1681565b60015481565b670de0b6b3a76400008034101561094557600080fd5b3460016000828254019250508190555050565b60075481565b60008083118015610970575060208311155b61097957600080fd5b600a84029350606060016040519080825280601f01601f1916602001820160405280156109b55781602001600182028038833980820191505090505b5090508360f81b816000815181106109c957fe5b60200101907effffffffffffffffffffffffffffffffffffffffffffffffffffffffffffff1916908160001a905350606060206040519080825280601f01601f191660200182016040528015610a2e5781602001600182028038833980820191505090505b509050606060206040519080825280601f01601f191660200182016040528015610a675781602001600182028038833980820191505090505b5090506000610a74611219565b905060208352424118600143034018602084015260208252806020830152606060206040519080825280601f01601f191660200182016040528015610ac85781602001600182028038833980820191505090505b509050886020820152606060086040519080825280601f01601f191660200182016040528015610b075781602001600182028038833980820191505090505b509050610b1a8260186008846000611539565b50610b2361281f565b60405180608001604052808781526020018881526020018681526020018481525090506000610b886040518060400160405280600681526020017f72616e646f6d0000000000000000000000000000000000000000000000000000815250838c611598565b9050606060086040519080825280601f01601f191660200182016040528015610bc05781602001600182028038833980820191505090505b50905060208401517f0100000000000000000000000000000000000000000000000000000000000000810460278301537e01000000000000000000000000000000000000000000000000000000000000810460268301537d010000000000000000000000000000000000000000000000000000000000810460258301537c0100000000000000000000000000000000000000000000000000000000810460248301537b01000000000000000000000000000000000000000000000000000000810460238301537a010000000000000000000000000000000000000000000000000000810460228301537901000000000000000000000000000000000000000000000000008104602183015378010000000000000000000000000000000000000000000000008104602083015350610ee6828285600160048110610cff57fe5b6020020151600287600060048110610d1357fe5b60200201516040518082805190602001908083835b60208310610d4b5780518252602082019150602081019050602083039250610d28565b6001836020036101000a038019825116818451168082178552505050505050905001915050602060405180830381855afa158015610d8d573d6000803e3d6000fd5b5050506040513d6020811015610da257600080fd5b810190808051906020019092919050505087600260048110610dc057fe5b60200201516040516020018085805190602001908083835b60208310610dfb5780518252602082019150602081019050602083039250610dd8565b6001836020036101000a03801982511681845116808217855250505050505090500184805190602001908083835b60208310610e4c5780518252602082019150602081019050602083039250610e29565b6001836020036101000a03801982511681845116808217855250505050505090500183815260200182805190602001908083835b60208310610ea35780518252602082019150602081019050602083039250610e80565b6001836020036101000a03801982511681845116808217855250505050505090500194505050505060405160208183030381529060405280519060200120611907565b8199505050505050505050509392505050565b60008073ffffffffffffffffffffffffffffffffffffffff16600360009054906101000a900473ffffffffffffffffffffffffffffffffffffffff1673ffffffffffffffffffffffffffffffffffffffff161480610f8157506000610f7f600360009054906101000a900473ffffffffffffffffffffffffffffffffffffffff16611923565b145b15610f9257610f90600061192e565b505b600360009054906101000a900473ffffffffffffffffffffffffffffffffffffffff1673ffffffffffffffffffffffffffffffffffffffff166338cc48316040518163ffffffff1660e01b8152600401602060405180830381600087803b158015610ffc57600080fd5b505af1158015611010573d6000803e3d6000fd5b505050506040513d602081101561102657600080fd5b810190808051906020019092919050505073ffffffffffffffffffffffffffffffffffffffff16600260009054906101000a900473ffffffffffffffffffffffffffffffffffffffff1673ffffffffffffffffffffffffffffffffffffffff161461117157600360009054906101000a900473ffffffffffffffffffffffffffffffffffffffff1673ffffffffffffffffffffffffffffffffffffffff166338cc48316040518163ffffffff1660e01b8152600401602060405180830381600087803b1580156110f557600080fd5b505af1158015611109573d6000803e3d6000fd5b505050506040513d602081101561111f57600080fd5b8101908080519060200190929190505050600260006101000a81548173ffffffffffffffffffffffffffffffffffffffff021916908373ffffffffffffffffffffffffffffffffffffffff1602179055505b600260009054906101000a900473ffffffffffffffffffffffffffffffffffffffff1673ffffffffffffffffffffffffffffffffffffffff1663c281d19e6040518163ffffffff1660e01b815260040160206040518083038186803b1580156111d957600080fd5b505afa1580156111ed573d6000803e3d6000fd5b505050506040513d602081101561120357600080fd5b8101908080519060200190929190505050905090565b60008073ffffffffffffffffffffffffffffffffffffffff16600360009054906101000a900473ffffffffffffffffffffffffffffffffffffffff1673ffffffffffffffffffffffffffffffffffffffff1614806112a15750600061129f600360009054906101000a900473ffffffffffffffffffffffffffffffffffffffff16611923565b145b156112b2576112b0600061192e565b505b600360009054906101000a900473ffffffffffffffffffffffffffffffffffffffff1673ffffffffffffffffffffffffffffffffffffffff166338cc48316040518163ffffffff1660e01b8152600401602060405180830381600087803b15801561131c57600080fd5b505af1158015611330573d6000803e3d6000fd5b505050506040513d602081101561134657600080fd5b810190808051906020019092919050505073ffffffffffffffffffffffffffffffffffffffff16600260009054906101000a900473ffffffffffffffffffffffffffffffffffffffff1673ffffffffffffffffffffffffffffffffffffffff161461149157600360009054906101000a900473ffffffffffffffffffffffffffffffffffffffff1673ffffffffffffffffffffffffffffffffffffffff166338cc48316040518163ffffffff1660e01b8152600401602060405180830381600087803b15801561141557600080fd5b505af1158015611429573d6000803e3d6000fd5b505050506040513d602081101561143f57600080fd5b8101908080519060200190929190505050600260006101000a81548173ffffffffffffffffffffffffffffffffffffffff021916908373ffffffffffffffffffffffffffffffffffffffff1602179055505b600260009054906101000a900473ffffffffffffffffffffffffffffffffffffffff1673ffffffffffffffffffffffffffffffffffffffff1663abaa5f3e6040518163ffffffff1660e01b815260040160206040518083038186803b1580156114f957600080fd5b505afa15801561150d573d6000803e3d6000fd5b505050506040513d602081101561152357600080fd5b8101908080519060200190929190505050905090565b606060008285019050808451101561155057600080fd5b600086602001905060008460200190505b8688602001018210156115895781890151808288015250602082019150602081019050611561565b85935050505095945050505050565b60008073ffffffffffffffffffffffffffffffffffffffff16600360009054906101000a900473ffffffffffffffffffffffffffffffffffffffff1673ffffffffffffffffffffffffffffffffffffffff1614806116205750600061161e600360009054906101000a900473ffffffffffffffffffffffffffffffffffffffff16611923565b145b156116315761162f600061192e565b505b600360009054906101000a900473ffffffffffffffffffffffffffffffffffffffff1673ffffffffffffffffffffffffffffffffffffffff166338cc48316040518163ffffffff1660e01b8152600401602060405180830381600087803b15801561169b57600080fd5b505af11580156116af573d6000803e3d6000fd5b505050506040513d60208110156116c557600080fd5b810190808051906020019092919050505073ffffffffffffffffffffffffffffffffffffffff16600260009054906101000a900473ffffffffffffffffffffffffffffffffffffffff1673ffffffffffffffffffffffffffffffffffffffff161461181057600360009054906101000a900473ffffffffffffffffffffffffffffffffffffffff1673ffffffffffffffffffffffffffffffffffffffff166338cc48316040518163ffffffff1660e01b8152600401602060405180830381600087803b15801561179457600080fd5b505af11580156117a8573d6000803e3d6000fd5b505050506040513d60208110156117be57600080fd5b8101908080519060200190929190505050600260006101000a81548173ffffffffffffffffffffffffffffffffffffffff021916908373ffffffffffffffffffffffffffffffffffffffff1602179055505b6060600460405190808252806020026020018201604052801561184757816020015b60608152602001906001900390816118325790505b5090508360006004811061185757fe5b60200201518160008151811061186957fe5b60200260200101819052508360016004811061188157fe5b60200201518160018151811061189357fe5b6020026020010181905250836002600481106118ab57fe5b6020020151816002815181106118bd57fe5b6020026020010181905250836003600481106118d557fe5b6020020151816003815181106118e757fe5b60200260200101819052506118fd85828561193f565b9150509392505050565b8060056000848152602001908152602001600020819055505050565b6000813b9050919050565b6000611938611ea5565b9050919050565b60008073ffffffffffffffffffffffffffffffffffffffff16600360009054906101000a900473ffffffffffffffffffffffffffffffffffffffff1673ffffffffffffffffffffffffffffffffffffffff1614806119c7575060006119c5600360009054906101000a900473ffffffffffffffffffffffffffffffffffffffff16611923565b145b156119d8576119d6600061192e565b505b600360009054906101000a900473ffffffffffffffffffffffffffffffffffffffff1673ffffffffffffffffffffffffffffffffffffffff166338cc48316040518163ffffffff1660e01b8152600401602060405180830381600087803b158015611a4257600080fd5b505af1158015611a56573d6000803e3d6000fd5b505050506040513d6020811015611a6c57600080fd5b810190808051906020019092919050505073ffffffffffffffffffffffffffffffffffffffff16600260009054906101000a900473ffffffffffffffffffffffffffffffffffffffff1673ffffffffffffffffffffffffffffffffffffffff1614611bb757600360009054906101000a900473ffffffffffffffffffffffffffffffffffffffff1673ffffffffffffffffffffffffffffffffffffffff166338cc48316040518163ffffffff1660e01b8152600401602060405180830381600087803b158015611b3b57600080fd5b505af1158015611b4f573d6000803e3d6000fd5b505050506040513d6020811015611b6557600080fd5b8101908080519060200190929190505050600260006101000a81548173ffffffffffffffffffffffffffffffffffffffff021916908373ffffffffffffffffffffffffffffffffffffffff1602179055505b6000600260009054906101000a900473ffffffffffffffffffffffffffffffffffffffff1673ffffffffffffffffffffffffffffffffffffffff16632ef3accc86856040518363ffffffff1660e01b81526004018080602001838152602001828103825284818151815260200191508051906020019080838360005b83811015611c4e578082015181840152602081019050611c33565b50505050905090810190601f168015611c7b5780820380516001836020036101000a031916815260200191505b509350505050602060405180830381600087803b158015611c9b57600080fd5b505af1158015611caf573d6000803e3d6000fd5b505050506040513d6020811015611cc557600080fd5b81019080805190602001909291905050509050823a02670de0b6b3a764000001811115611cf8576000801b915050611e9e565b6060611d03856123fc565b9050600260009054906101000a900473ffffffffffffffffffffffffffffffffffffffff1673ffffffffffffffffffffffffffffffffffffffff1663c55c1cb68360008985896040518663ffffffff1660e01b8152600401808581526020018060200180602001848152602001838103835286818151815260200191508051906020019080838360005b83811015611da8578082015181840152602081019050611d8d565b50505050905090810190601f168015611dd55780820380516001836020036101000a031916815260200191505b50838103825285818151815260200191508051906020019080838360005b83811015611e0e578082015181840152602081019050611df3565b50505050905090810190601f168015611e3b5780820380516001836020036101000a031916815260200191505b5096505050505050506020604051808303818588803b158015611e5d57600080fd5b505af1158015611e71573d6000803e3d6000fd5b50505050506040513d6020811015611e8857600080fd5b8101908080519060200190929190505050925050505b9392505050565b600080611ec5731d3b2638a7cc9f2cb3d298a3da7a90b67e5506ed611923565b1115611f6757731d3b2638a7cc9f2cb3d298a3da7a90b67e5506ed600360006101000a81548173ffffffffffffffffffffffffffffffffffffffff021916908373ffffffffffffffffffffffffffffffffffffffff160217905550611f5e6040518060400160405280600b81526020017f6574685f6d61696e6e657400000000000000000000000000000000000000000081525061247c565b600190506123f9565b6000611f8673c03a2615d5efaf5f49f60b7bb6583eaec212fdf1611923565b11156120285773c03a2615d5efaf5f49f60b7bb6583eaec212fdf1600360006101000a81548173ffffffffffffffffffffffffffffffffffffffff021916908373ffffffffffffffffffffffffffffffffffffffff16021790555061201f6040518060400160405280600c81526020017f6574685f726f707374656e33000000000000000000000000000000000000000081525061247c565b600190506123f9565b600061204773b7a07bcf2ba2f2703b24c0691b5278999c59ac7e611923565b11156120e95773b7a07bcf2ba2f2703b24c0691b5278999c59ac7e600360006101000a81548173ffffffffffffffffffffffffffffffffffffffff021916908373ffffffffffffffffffffffffffffffffffffffff1602179055506120e06040518060400160405280600981526020017f6574685f6b6f76616e000000000000000000000000000000000000000000000081525061247c565b600190506123f9565b600061210873146500cfd35b22e4a392fe0adc06de1a1368ed48611923565b11156121aa5773146500cfd35b22e4a392fe0adc06de1a1368ed48600360006101000a81548173ffffffffffffffffffffffffffffffffffffffff021916908373ffffffffffffffffffffffffffffffffffffffff1602179055506121a16040518060400160405280600b81526020017f6574685f72696e6b65627900000000000000000000000000000000000000000081525061247c565b600190506123f9565b60006121c973a2998efd205fb9d4b4963afb70778d6354ad3a41611923565b111561226b5773a2998efd205fb9d4b4963afb70778d6354ad3a41600360006101000a81548173ffffffffffffffffffffffffffffffffffffffff021916908373ffffffffffffffffffffffffffffffffffffffff1602179055506122626040518060400160405280600a81526020017f6574685f676f65726c690000000000000000000000000000000000000000000081525061247c565b600190506123f9565b600061228a736f485c8bf6fc43ea212e93bbf8ce046c7f1cb475611923565b11156122ee57736f485c8bf6fc43ea212e93bbf8ce046c7f1cb475600360006101000a81548173ffffffffffffffffffffffffffffffffffffffff021916908373ffffffffffffffffffffffffffffffffffffffff160217905550600190506123f9565b600061230d7320e12a1f859b3feae5fb2a0a32c18f5a65555bbf611923565b1115612371577320e12a1f859b3feae5fb2a0a32c18f5a65555bbf600360006101000a81548173ffffffffffffffffffffffffffffffffffffffff021916908373ffffffffffffffffffffffffffffffffffffffff160217905550600190506123f9565b60006123907351efaf4c8b3c9afbd5ab9f4bbc82784ab6ef8faa611923565b11156123f4577351efaf4c8b3c9afbd5ab9f4bbc82784ab6ef8faa600360006101000a81548173ffffffffffffffffffffffffffffffffffffffff021916908373ffffffffffffffffffffffffffffffffffffffff160217905550600190506123f9565b600090505b90565b6060612406612496565b61240e612846565b61241a816104006124a2565b612423816124ec565b60008090505b83518110156124655761245884828151811061244157fe5b6020026020010151836124fa90919063ffffffff16565b8080600101915050612429565b5061246f8161251f565b8060000151915050919050565b8060049080519060200190612492929190612860565b5050565b60405180590338823950565b60008190506000602082816124b357fe5b06146124cc57602081816124c357fe5b06602003810190505b808360200181815250506040518084526000815281810160405250505050565b6124f781600461252d565b50565b612507826002835161254e565b61251a818361268e90919063ffffffff16565b505050565b61252a81600761252d565b50565b61254a601f60058360ff16901b178361273990919063ffffffff16565b5050565b6017811161257a576125758160058460ff16901b60ff16178461273990919063ffffffff16565b612689565b60ff81116125bb5761259f601860058460ff16901b178461273990919063ffffffff16565b6125b5816001856127799092919063ffffffff16565b50612688565b61ffff81116125fd576125e1601960058460ff16901b178461273990919063ffffffff16565b6125f7816002856127799092919063ffffffff16565b50612687565b63ffffffff811161264157612625601a60058460ff16901b178461273990919063ffffffff16565b61263b816004856127799092919063ffffffff16565b50612686565b67ffffffffffffffff81116126855761266d601b60058460ff16901b178461273990919063ffffffff16565b612683816008856127799092919063ffffffff16565b505b5b5b5b5b505050565b612696612846565b826020015183600001515183510111156126c6576126c58360026126bf866020015186516127e0565b026127fc565b5b60008060008451905085518051602081830101945086518101825260208701935050505b6020811061270d57815183526020830192506020820191506020810390506126ea565b60006001826020036101000a039050801983511681855116818117865250508694505050505092915050565b8160200151600183600001515101111561275f5761275e8260028460200151026127fc565b5b815180516020818301018381536001820183525050505050565b612781612846565b8360200151846000015151830111156127af576127ae8460026127a88760200151866127e0565b026127fc565b5b60006001836101000a0390508451805184818301018684198251161781528582018352505050849150509392505050565b6000818311156127f2578290506127f6565b8190505b92915050565b60608260000151905061280f83836124a2565b612819838261268e565b50505050565b60405180608001604052806004905b606081526020019060019003908161282e5790505090565b604051806040016040528060608152602001600081525090565b828054600181600116156101000203166002900490600052602060002090601f016020900481019282601f106128a157805160ff19168380011785556128cf565b828001600101855582156128cf579182015b828111156128ce5782518255916020019190600101906128b3565b5b5090506128dc91906128e0565b5090565b61290291905b808211156128fe5760008160009055506001016128e6565b5090565b9056fe50726f7661626c65207175657279207761732073656e742c207374616e64696e6720627920666f722074686520616e737765722e2e2ea265627a7a723158209df644d34b92d3fd1a19f027770a3184de5d3ff5c25438fc827145152f3580b064736f6c634300050c0032",
  "source": "pragma solidity 0.5.12;\nimport \"./Ownable.sol\";\nimport \"./provableAPI.sol\";\n\ncontract CoinFlip is Ownable, usingProvable {\n\n\n    uint256 constant NUM_RANDOM_BYTES_REQUESTED = 1;\n    uint256 public latestNumber;\n\n    struct Bet {\n      address payable playerAddress;\n      uint betAmount;\n      uint256 betOn;\n    }\n\n    event betPlaced(bytes32 indexed queryId, address playerAddress, uint256 betAmount, uint256 betOn, uint256 latestNumber, bool flipResult);\n    event logNewProvableQuery(string description);\n    event generatedRandomNumber(uint256 randomNumber);\n    event logQueryId(bytes32 indexed queryId, address playerAddress);\n\n    mapping (bytes32 => Bet) private bets;\n\n    modifier costs(uint cost){\n        require(msg.value >= cost);\n        _;\n    }\n\n    function placeBet(uint256 betOn) public payable costs(0.05 ether) {\n\n        uint256 QUERY_EXECUTION_DELAY = 0;\n        uint256 GAS_FOR_CALLBACK = 200000;\n        bytes32 queryId = provable_newRandomDSQuery(\n            QUERY_EXECUTION_DELAY,\n            NUM_RANDOM_BYTES_REQUESTED,\n            GAS_FOR_CALLBACK\n        );\n\n        bets[queryId] = Bet(msg.sender, msg.value, betOn);\n        emit logNewProvableQuery(\"Provable query was sent, standing by for the answer...\");\n        emit logQueryId(queryId, msg.sender);\n    }\n\n    function __callback( bytes32 _queryId, string memory _result,bytes memory _proof) public {\n        require(msg.sender == provable_cbAddress());\n\n        latestNumber = uint256(keccak256(abi.encodePacked(_result))) % 2;\n        uint betAmount =   bets[_queryId].betAmount*2;\n        address payable playerAddress = bets[_queryId].playerAddress;\n        bool  flipResult = false;\n        uint256 betOn =  bets[_queryId].betOn;\n\n        if(latestNumber == betOn) {\n             flipResult = true;\n             playerAddress.transfer(betAmount);\n\n        } else {\n            flipResult = false;\n        }\n\n        emit generatedRandomNumber(latestNumber);\n        emit betPlaced(_queryId, playerAddress, betAmount, betOn, latestNumber, flipResult);\n    }\n\n   function getBalance() public view returns(uint){\n       return address(this).balance;\n   }\n\n   function fundContract() public payable costs(1 ether) {\n      balance += msg.value;\n    }\n\n   function close() public onlyOwner {\n        msg.sender.transfer(balance);\n        balance = 0;\n        selfdestruct(msg.sender);\n    }\n}\n",
  "sourcePath": "/Users/jsd/lab/ethad/CoinFlip/contracts/CoinFlip.sol",
  "compiler": {
    "name": "solc",
    "version": "0.5.12+commit.7709ece9.Emscripten.clang"
  },
  "schemaVersion": "3.0.23",
  "updatedAt": "2020-05-21T15:05:03.040Z",
  "networkType": "ethereum",
  "devdoc": {
    "methods": {
      "__callback(bytes32,string)": {
        "details": "The following `__callback` functions are just placeholders ideally     meant to be defined in child contract when proofs are used.     The function bodies simply silence compiler warnings."
      }
    }
  },
  "userdoc": {
    "methods": {}
  }
}