{
  "contractName": "People",
  "abi": [
    {
      "anonymous": false,
      "inputs": [
        {
          "indexed": false,
          "internalType": "string",
          "name": "name",
          "type": "string"
        },
        {
          "indexed": false,
          "internalType": "bool",
          "name": "senior",
          "type": "bool"
        }
      ],
      "name": "personCreated",
      "type": "event"
    },
    {
      "anonymous": false,
      "inputs": [
        {
          "indexed": false,
          "internalType": "string",
          "name": "name",
          "type": "string"
        },
        {
          "indexed": false,
          "internalType": "bool",
          "name": "senior",
          "type": "bool"
        },
        {
          "indexed": false,
          "internalType": "address",
          "name": "deletedBy",
          "type": "address"
        }
      ],
      "name": "personDeleted",
      "type": "event"
    },
    {
      "constant": true,
      "inputs": [],
      "name": "balance",
      "outputs": [
        {
          "internalType": "uint256",
          "name": "",
          "type": "uint256"
        }
      ],
      "payable": false,
      "stateMutability": "view",
      "type": "function"
    },
    {
      "constant": true,
      "inputs": [],
      "name": "owner",
      "outputs": [
        {
          "internalType": "address payable",
          "name": "",
          "type": "address"
        }
      ],
      "payable": false,
      "stateMutability": "view",
      "type": "function"
    },
    {
      "constant": false,
      "inputs": [
        {
          "internalType": "string",
          "name": "name",
          "type": "string"
        },
        {
          "internalType": "uint256",
          "name": "age",
          "type": "uint256"
        },
        {
          "internalType": "uint256",
          "name": "height",
          "type": "uint256"
        }
      ],
      "name": "createPerson",
      "outputs": [],
      "payable": true,
      "stateMutability": "payable",
      "type": "function"
    },
    {
      "constant": true,
      "inputs": [],
      "name": "getPerson",
      "outputs": [
        {
          "internalType": "string",
          "name": "name",
          "type": "string"
        },
        {
          "internalType": "uint256",
          "name": "age",
          "type": "uint256"
        },
        {
          "internalType": "uint256",
          "name": "height",
          "type": "uint256"
        },
        {
          "internalType": "bool",
          "name": "senior",
          "type": "bool"
        }
      ],
      "payable": false,
      "stateMutability": "view",
      "type": "function"
    },
    {
      "constant": false,
      "inputs": [
        {
          "internalType": "address",
          "name": "creator",
          "type": "address"
        }
      ],
      "name": "deletePerson",
      "outputs": [],
      "payable": false,
      "stateMutability": "nonpayable",
      "type": "function"
    },
    {
      "constant": true,
      "inputs": [
        {
          "internalType": "uint256",
          "name": "index",
          "type": "uint256"
        }
      ],
      "name": "getCreator",
      "outputs": [
        {
          "internalType": "address",
          "name": "",
          "type": "address"
        }
      ],
      "payable": false,
      "stateMutability": "view",
      "type": "function"
    },
    {
      "constant": false,
      "inputs": [],
      "name": "withdrawAll",
      "outputs": [
        {
          "internalType": "uint256",
          "name": "",
          "type": "uint256"
        }
      ],
      "payable": false,
      "stateMutability": "nonpayable",
      "type": "function"
    }
  ],
  "bytecode": "0x6080604052336000806101000a81548173ffffffffffffffffffffffffffffffffffffffff021916908373ffffffffffffffffffffffffffffffffffffffff160217905550611084806100536000396000f3fe6080604052600436106100705760003560e01c80638ec4dc951161004e5780638ec4dc9514610148578063b69ef8a8146101f1578063d48e638a1461021c578063fce82d711461029757610070565b8063102cda4a14610075578063853828b6146100c65780638da5cb5b146100f1575b600080fd5b34801561008157600080fd5b506100c46004803603602081101561009857600080fd5b81019080803573ffffffffffffffffffffffffffffffffffffffff169060200190929190505050610366565b005b3480156100d257600080fd5b506100db6106be565b6040518082815260200191505060405180910390f35b3480156100fd57600080fd5b50610106610776565b604051808273ffffffffffffffffffffffffffffffffffffffff1673ffffffffffffffffffffffffffffffffffffffff16815260200191505060405180910390f35b34801561015457600080fd5b5061015d61079b565b604051808060200185815260200184815260200183151515158152602001828103825286818151815260200191508051906020019080838360005b838110156101b3578082015181840152602081019050610198565b50505050905090810190601f1680156101e05780820380516001836020036101000a031916815260200191505b509550505050505060405180910390f35b3480156101fd57600080fd5b50610206610969565b6040518082815260200191505060405180910390f35b34801561022857600080fd5b506102556004803603602081101561023f57600080fd5b810190808035906020019092919050505061096f565b604051808273ffffffffffffffffffffffffffffffffffffffff1673ffffffffffffffffffffffffffffffffffffffff16815260200191505060405180910390f35b610364600480360360608110156102ad57600080fd5b81019080803590602001906401000000008111156102ca57600080fd5b8201836020820111156102dc57600080fd5b803590602001918460018302840111640100000000831117156102fe57600080fd5b91908080601f016020809104026020016040519081016040528093929190818152602001838380828437600081840152601f19601f8201169050808301925050505050505091929192908035906020019092919080359060200190929190505050610a09565b005b6000809054906101000a900473ffffffffffffffffffffffffffffffffffffffff1673ffffffffffffffffffffffffffffffffffffffff163373ffffffffffffffffffffffffffffffffffffffff16146103bf57600080fd5b6060600360008373ffffffffffffffffffffffffffffffffffffffff1673ffffffffffffffffffffffffffffffffffffffff1681526020019081526020016000206001018054600181600116156101000203166002900480601f0160208091040260200160405190810160405280929190818152602001828054600181600116156101000203166002900480156104975780601f1061046c57610100808354040283529160200191610497565b820191906000526020600020905b81548152906001019060200180831161047a57829003601f168201915b505050505090506000600360008473ffffffffffffffffffffffffffffffffffffffff1673ffffffffffffffffffffffffffffffffffffffff16815260200190815260200160002060040160009054906101000a900460ff169050600360008473ffffffffffffffffffffffffffffffffffffffff1673ffffffffffffffffffffffffffffffffffffffff16815260200190815260200160002060008082016000905560018201600061054a9190610f31565b600282016000905560038201600090556004820160006101000a81549060ff021916905550506000600360008573ffffffffffffffffffffffffffffffffffffffff1673ffffffffffffffffffffffffffffffffffffffff16815260200190815260200160002060020154146105bc57fe5b7fce505ea5e5a360ed968bacfdf5b52e168dfe627776422d678cb12143ebe187c882826000809054906101000a900473ffffffffffffffffffffffffffffffffffffffff166040518080602001841515151581526020018373ffffffffffffffffffffffffffffffffffffffff1673ffffffffffffffffffffffffffffffffffffffff168152602001828103825285818151815260200191508051906020019080838360005b8381101561067d578082015181840152602081019050610662565b50505050905090810190601f1680156106aa5780820380516001836020036101000a031916815260200191505b5094505050505060405180910390a1505050565b60008060009054906101000a900473ffffffffffffffffffffffffffffffffffffffff1673ffffffffffffffffffffffffffffffffffffffff163373ffffffffffffffffffffffffffffffffffffffff161461071957600080fd5b6000600254905060006002819055503373ffffffffffffffffffffffffffffffffffffffff166108fc829081150290604051600060405180830381858888f1935050505015801561076e573d6000803e3d6000fd5b508091505090565b6000809054906101000a900473ffffffffffffffffffffffffffffffffffffffff1681565b6060600080600080339050600360008273ffffffffffffffffffffffffffffffffffffffff1673ffffffffffffffffffffffffffffffffffffffff168152602001908152602001600020600101600360008373ffffffffffffffffffffffffffffffffffffffff1673ffffffffffffffffffffffffffffffffffffffff16815260200190815260200160002060020154600360008473ffffffffffffffffffffffffffffffffffffffff1673ffffffffffffffffffffffffffffffffffffffff16815260200190815260200160002060030154600360008573ffffffffffffffffffffffffffffffffffffffff1673ffffffffffffffffffffffffffffffffffffffff16815260200190815260200160002060040160009054906101000a900460ff16838054600181600116156101000203166002900480601f0160208091040260200160405190810160405280929190818152602001828054600181600116156101000203166002900480156109535780601f1061092857610100808354040283529160200191610953565b820191906000526020600020905b81548152906001019060200180831161093657829003601f168201915b5050505050935094509450945094505090919293565b60025481565b60008060009054906101000a900473ffffffffffffffffffffffffffffffffffffffff1673ffffffffffffffffffffffffffffffffffffffff163373ffffffffffffffffffffffffffffffffffffffff16146109ca57600080fd5b600482815481106109d757fe5b9060005260206000200160009054906101000a900473ffffffffffffffffffffffffffffffffffffffff169050919050565b670de0b6b3a764000080341015610a1f57600080fd5b60968310610a95576040517f08c379a00000000000000000000000000000000000000000000000000000000081526004018080602001828103825260198152602001807f416765206e6565647320746f2062652062656c6f77203135300000000000000081525060200191505060405180910390fd5b670de0b6b3a7640000341015610aaa57600080fd5b34600260008282540192505081905550610ac2610f79565b848160200181905250838160400181815250508281606001818152505060418410610afd576001816080019015159081151581525050610b0f565b60008160800190151590811515815250505b610b1881610e8a565b60043390806001815401808255809150509060018203906000526020600020016000909192909190916101000a81548173ffffffffffffffffffffffffffffffffffffffff021916908373ffffffffffffffffffffffffffffffffffffffff1602179055505080602001518160400151826060015183608001516040516020018085805190602001908083835b60208310610bc85780518252602082019150602081019050602083039250610ba5565b6001836020036101000a038019825116818451168082178552505050505050905001848152602001838152602001821515151560f81b815260010194505050505060405160208183030381529060405280519060200120600360003373ffffffffffffffffffffffffffffffffffffffff1673ffffffffffffffffffffffffffffffffffffffff168152602001908152602001600020600101600360003373ffffffffffffffffffffffffffffffffffffffff1673ffffffffffffffffffffffffffffffffffffffff16815260200190815260200160002060020154600360003373ffffffffffffffffffffffffffffffffffffffff1673ffffffffffffffffffffffffffffffffffffffff16815260200190815260200160002060030154600360003373ffffffffffffffffffffffffffffffffffffffff1673ffffffffffffffffffffffffffffffffffffffff16815260200190815260200160002060040160009054906101000a900460ff166040516020018085805460018160011615610100020316600290048015610d955780601f10610d73576101008083540402835291820191610d95565b820191906000526020600020905b815481529060010190602001808311610d81575b5050848152602001838152602001821515151560f81b81526001019450505050506040516020818303038152906040528051906020012014610dd357fe5b7f483a95908cf8068144f424e2adef59ae102592afd2706bb3d37a620b6a2304e781602001518260800151604051808060200183151515158152602001828103825284818151815260200191508051906020019080838360005b83811015610e48578082015181840152602081019050610e2d565b50505050905090810190601f168015610e755780820380516001836020036101000a031916815260200191505b50935050505060405180910390a15050505050565b600033905081600360008373ffffffffffffffffffffffffffffffffffffffff1673ffffffffffffffffffffffffffffffffffffffff168152602001908152602001600020600082015181600001556020820151816001019080519060200190610ef5929190610faa565b50604082015181600201556060820151816003015560808201518160040160006101000a81548160ff0219169083151502179055509050505050565b50805460018160011615610100020316600290046000825580601f10610f575750610f76565b601f016020900490600052602060002090810190610f75919061102a565b5b50565b6040518060a00160405280600081526020016060815260200160008152602001600081526020016000151581525090565b828054600181600116156101000203166002900490600052602060002090601f016020900481019282601f10610feb57805160ff1916838001178555611019565b82800160010185558215611019579182015b82811115611018578251825591602001919060010190610ffd565b5b509050611026919061102a565b5090565b61104c91905b80821115611048576000816000905550600101611030565b5090565b9056fea265627a7a723158205e5c7441921b36a578dd54cc992f2f8231d7fe1002f42a23ac904e1aef28bb1464736f6c634300050c0032",
  "source": "import \"./Ownable.sol\";\npragma solidity 0.5.12;\n\ncontract People is Ownable{\n\n    struct Person {\n      uint id;\n      string name;\n      uint age;\n      uint height;\n      bool senior;\n    }\n\n    event personCreated(string name, bool senior);\n    event personDeleted(string name, bool senior, address deletedBy);\n\n    uint public balance;\n\n    modifier costs(uint cost){\n        require(msg.value >= cost);\n        _;\n    }\n\n    mapping (address => Person) private people;\n    address[] private creators;\n\n    function createPerson(string memory name, uint age, uint height) public payable costs(1 ether){\n      require(age < 150, \"Age needs to be below 150\");\n      require(msg.value >= 1 ether);\n      balance += msg.value;\n\n        //This creates a person\n        Person memory newPerson;\n        newPerson.name = name;\n        newPerson.age = age;\n        newPerson.height = height;\n\n        if(age >= 65){\n           newPerson.senior = true;\n       }\n       else{\n           newPerson.senior = false;\n       }\n\n        insertPerson(newPerson);\n        creators.push(msg.sender);\n\n        assert(\n            keccak256(\n                abi.encodePacked(\n                    people[msg.sender].name,\n                    people[msg.sender].age,\n                    people[msg.sender].height,\n                    people[msg.sender].senior\n                )\n            )\n            ==\n            keccak256(\n                abi.encodePacked(\n                    newPerson.name,\n                    newPerson.age,\n                    newPerson.height,\n                    newPerson.senior\n                )\n            )\n        );\n        emit personCreated(newPerson.name, newPerson.senior);\n    }\n    function insertPerson(Person memory newPerson) private {\n        address creator = msg.sender;\n        people[creator] = newPerson;\n    }\n    function getPerson() public view returns(string memory name, uint age, uint height, bool senior){\n        address creator = msg.sender;\n        return (people[creator].name, people[creator].age, people[creator].height, people[creator].senior);\n    }\n    function deletePerson(address creator) public onlyOwner {\n      string memory name = people[creator].name;\n      bool senior = people[creator].senior;\n\n       delete people[creator];\n       assert(people[creator].age == 0);\n       emit personDeleted(name, senior, owner);\n   }\n   function getCreator(uint index) public view onlyOwner returns(address){\n       return creators[index];\n   }\n   function withdrawAll() public onlyOwner returns(uint) {\n       uint toTransfer = balance;\n       balance = 0;\n       msg.sender.transfer(toTransfer);\n       return toTransfer;\n   }\n\n}\n",
  "sourcePath": "/Users/jsd/lab/ethad/CoinFlip/contracts/People.sol",
  "compiler": {
    "name": "solc",
    "version": "0.5.12+commit.7709ece9.Emscripten.clang"
  },
  "schemaVersion": "3.0.23",
  "updatedAt": "2020-05-13T13:15:24.282Z",
  "networkType": "ethereum",
  "devdoc": {
    "methods": {}
  },
  "userdoc": {
    "methods": {}
  }
}